:020000040800F2
:1000000068070020CD010008090500080105000867
:1000100005050008150300086D1400080000000025
:10002000000000000000000000000000A906000819
:10003000E10300080000000091050008BD0700086A
:10004000E7010008E7010008E7010008E7010008F0
:10005000E7010008E7010008E7010008E7010008E0
:10006000E7010008E7010008E7010008E7010008D0
:10007000E7010008E7010008E7010008E7010008C0
:10008000E7010008E7010008E7010008E7010008B0
:10009000E7010008E7010008E7010008E7010008A0
:1000A000E7010008E7010008E7010008E701000890
:1000B000610A0008250B0008110C0008E701000880
:1000C000E7010008E7010008E7010008E701000870
:1000D000E701000825100008E7010008E701000813
:1000E000E7010008E7010008E7010008E701000850
:1000F000E7010008E7010008E7010008E701000840
:10010000E7010008E7010008E7010008E70100082F
:10011000E7010008E7010008E7010008E70100081F
:10012000E7010008E7010008E7010008E70100080F
:1001300000F002F800F03AF80AA090E8000C8244BF
:100140008344AAF10107DA4501D100F02FF8AFF29C
:10015000090EBAE80F0013F0010F18BFFB1A43F0A5
:1001600001031847A0140000C0140000103A24BF77
:1001700078C878C1FAD8520724BF30C830C144BF0C
:1001800004680C607047000000230024002500264E
:10019000103A28BF78C1FBD8520728BF30C148BFEA
:1001A0000B6070471FB51FBD10B510BD00F06EF895
:1001B0001146FFF7F7FF01F0B5F900F0A0F803B41E
:1001C000FFF7F2FF03BC01F053F900000948804734
:1001D00009480047FEE7FEE7FEE7FEE7FEE7FEE729
:1001E000FEE7FEE7FEE7FEE704480549054A064B41
:1001F00070470000C10700083101000868010020B5
:100200006807002068030020680300207047000092
:100210000FB4044910B503AA029800F009F810BC05
:100220005DF814FB18000020704770477047704756
:10023000074B70B50D467B4400F011F80446284684
:1002400000F020F810B14FF0FF3070BD204670BDB7
:10025000CF12000001694A1C02610878704700B59E
:100260008FB0CDE901310021059105497944CDE9EF
:1002700003101146684600F02EF80FB000BD0000D4
:10028000E5FFFFFF007B00F080007047754600F03F
:100290003DF8AE4605006946534620F00700854606
:1002A00018B020B5FFF7A0FFBDE820404FF00006D2
:1002B0004FF000074FF000084FF0000B21F007014E
:1002C000AC46ACE8C009ACE8C009ACE8C009ACE891
:1002D000C0098D4670472DE9F04106460024D6E955
:1002E0000170F5688046304603E04146B847641C1B
:1002F0003046A8470028F8D12046BDE8F0810446E2
:10030000AFF300802046FFF75AFF00000048704717
:100310000401002000BFFEE700B589B001210846B6
:1003200000F038F90121042000F044F901211020E7
:1003300000F040F948208DF823000120ADF820009E
:1003400008A9254800F04DF810208DF8230008205A
:10035000ADF8200003208DF8220008A91F4800F006
:1003600040F80020ADF816004FF6FF70ADF8180009
:100370004720ADF8140005A94FF0804000F000FEC2
:100380000020ADF80800ADF81000ADF80A0001201B
:10039000ADF80C000020ADF80E0002A94FF080402F
:1003A00000F09AFC01220321900700F0EBFC1C20D6
:1003B0008DF8040001208DF8070002208DF805005B
:1003C00000208DF8060001A800F0A0F801218807A0
:1003D00000F061FC09B000BD0008014000100140C0
:1003E00070472DE9F0410246002500260020002339
:1003F0000024002791F803C00CF00F0591F803C00A
:100400000CF0100CBCF1000F03D091F802C04CEAC4
:10041000050591F800C0BCF1000F31D01468002030
:100420002BE04FF0010C0CFA00F3B1F800C00CEA1D
:1004300003069E4220D183004FF00F0C0CFA03F705
:10044000BC4305FA03FC4CEA040491F803C0BCF178
:10045000280F06D14FF0010C0CFA00FCC2F814C0B2
:100460000AE091F803C0BCF1480F05D14FF0010C30
:100470000CFA00FCC2F810C0401C0828D1D314604C
:10048000B1F800C0BCF1FF0F34DD546800202EE04D
:1004900000F1080C4FF0010808FA0CF3B1F800C0A5
:1004A0000CEA03069E4221D183004FF00F0C0CFA98
:1004B00003F7BC4305FA03FC4CEA040491F803C0BB
:1004C000BCF1280F05D100F1080C08FA0CF8C2F8AD
:1004D000148091F803C0BCF1480F07D100F1080C5B
:1004E0004FF0010808FA0CF8C2F81080401C0828E8
:1004F000CED35460BDE8F08141617047016170471F
:1005000000BFFEE700BFFEE77047000070B50021A6
:1005100000230F22C47804B3154C246804F4E0646B
:10052000C4F5E064210AC1F10403CA40447804FA26
:1005300003F184781440214309010E4C0678A1553B
:10054000047804F01F050124AC4005786D11AD005E
:1005500005F1E025C5F8004109E0047804F01F0525
:100560000124AC40044D0678761145F8264070BD54
:100570000CED00E000E400E080E100E0024901430E
:10058000024A1160704700000000FA050CED00E01F
:100590007047000029B1064AD2690243044BDA6170
:1005A00004E0034AD2698243014BDA6170470000DC
:1005B0000010024029B1064A92690243044B9A6135
:1005C00004E0034A92698243014B9A61704700003C
:1005D0000010024030B500210022002400232D4DE0
:1005E0006D6805F00C0121B1042905D0082923D13B
:1005F00005E0294D056022E0274D05601FE0254DEF
:100600006D6805F47012234D6D6805F48034022581
:1006100005EB92421CB9214D554305600BE01D4D81
:100620006D6805F400351DB11C4D5543056002E0B1
:10063000194D5543056002E0174D056000BF00BF2E
:10064000144D6D6805F0F0010909154D6B5C0568E6
:10065000DD4045600F4D6D6805F4E061090A104DFD
:100660006B5C4568DD4085600A4D6D6805F460513E
:10067000C90A0B4D6B5C4568DD40C560054D6D6872
:1006800005F44041890B074D6B5CC568B5FBF3F57C
:10069000056130BD0010024000127A0000093D00E3
:1006A0001E0000202E000020704710B500F002F858
:1006B00010BD00000CB50020019000903348006888
:1006C00040F480303149086000BF3048006800F4D1
:1006D000003000900198401C0190009818B90198D2
:1006E000B0F5A06FF1D12948006800F4003010B1D6
:1006F0000120009001E0002000900098012843D1E3
:100700002348006840F0100021490860084600684E
:1007100020F0030008600846006840F0020008600E
:100720001A484068194948600846406848600846C9
:10073000406840F4806048600846406820F47C10BF
:1007400048600846406840F4E81048600846006881
:1007500040F08070086000BF0C48006800F0007036
:100760000028F9D00948406820F003000749486094
:100770000846406840F00200486000BF03484068F7
:1007800000F00C000828F9D10CBD00000010024058
:1007900000200240042808D14FF0E021096941F00F
:1007A00004014FF0E022116107E04FF0E0210969F8
:1007B00021F004014FF0E022116170477047000002
:1007C00010B51348006840F0010011490860084660
:1007D0004068104908400E494860084600680E49C4
:1007E00008400B4908600846006820F48020086033
:1007F0000846406820F4FE0048604FF41F008860FF
:10080000FFF753FF4FF000600449086010BD00007F
:10081000001002400000FFF8FFFFF6FE08ED00E0C8
:10082000F0B50C46154600220021068C4FF6FE77E7
:100830003E400684028B018C4FF60C7632407E1CC3
:1008400006EA03162E433243104EB0420ED0104E2D
:10085000B0420BD0B0F1804F08D00E4EB04205D060
:100860000D4EB04202D00D4EB04206D14FF6FD768D
:10087000314044F00106314305E04FF6F576314052
:1008800044F00106314302830184F0BD002C014095
:10089000003401400004004000080040000C00400B
:1008A000F0B50C461546002200210026078C4FF6B5
:1008B000EF7C07EA0C070784028B018C4FF6FF7769
:1008C00007EA041640F6FF473A404FF6FF7707EA7B
:1008D00003373A434FF6FF7707EA05273A43114FAC
:1008E000B8420ED0104FB8420BD0B0F1804F08D0B4
:1008F0000E4FB84205D00E4FB84202D00D4FB8424D
:1009000006D14FF6DF77394046F01007394305E04E
:100910004FF65F77394044F0100739430283018472
:10092000F0BD0000002C01400034014000040040F4
:1009300000080040000C0040F0B50C4615460022AF
:1009400000210026078C4FF6FF6C07EA0C0707848E
:10095000828B018C4FF6FF7707EA04264FF60C775F
:100960003A404FF6FF7707EA03172F433A43114FF8
:10097000B8420ED0104FB8420BD0B0F1804F08D023
:100980000E4FB84205D00E4FB84202D00D4FB842BC
:1009900006D14FF6FF57394046F48077394305E0DA
:1009A0004FF2FF57394044F4807739438283018402
:1009B000F0BD0000002C0140003401400004004064
:1009C00000080040000C0040F0B50C46154600221F
:1009D00000210026078C4EF6FF7C07EA0C070784EF
:1009E000828B018C4FF6FF7707EA043640F6FF470B
:1009F0003A404FF6FF7707EA05273A434FF6FF776D
:100A000007EA03373A43114FB8420ED0104FB842AD
:100A10000BD0B0F1804F08D00E4FB84205D00E4F2A
:100A2000B84202D00D4FB84206D14DF6FF7739409B
:100A300046F48057394305E047F6FF57394044F400
:100A40008057394382830184F0BD0000002C0140AF
:100A5000003401400004004000080040000C004049
:100A600010B52E48007800F0800000284FD10121F9
:100A7000880700F01FF9D0B12848007800F0400046
:100A8000A8B12648007800F03F003F280AD123484B
:100A9000007840F08000214908704FF6FF7020492F
:100AA000088004E01D480078401C1C4908700221A1
:100AB000480700F0FFF850B31848007800F04000F5
:100AC00088B11648007840F08000144908704FF053
:100AD000804000F0ECF81249088000214FF080407F
:100AE00000F059F913E000200C4908700C49088007
:100AF00000214FF0804000F014FA0848007840F0E0
:100B00004000064908700221480700F044F903211B
:100B10004FF0804000F0BCF810BD0000380000200D
:100B20003A00002010B50121044800F0C3F818B1C4
:100B30000121024800F0ACF810BD000000040040A4
:100B400030B589B005460C4601210220FFF722FD91
:100B500001214D20FFF72EFD4FF4F040ADF82000AD
:100B600010208DF8230003208DF8220008A92448C6
:100B7000FFF737FC8020ADF8200018208DF8230007
:100B800003208DF8220008A91E48FFF72AFC012047
:100B9000ADF8200018208DF8230003208DF82200E6
:100BA00008A91948FFF71DFCADF81850ADF814401E
:100BB0000020ADF81A00ADF8160005A9134800F0A2
:100BC000DFF97020ADF804000120ADF80600002028
:100BD000ADF80C0001A90D4800F0E6F808210B481B
:100BE00000F034F901A9094800F03EF9082107484E
:100BF00000F08AF90121054800F04DF809B030BD38
:100C00000018014000080140000C014000040040B1
:100C100010B50121054800F04DF828B10121034825
:100C200000F036F800F010FB10BD00000008004096
:100C30007FB505460C4601210420FFF7ABFCADF85B
:100C40000850ADF804400020ADF80A00ADF80600E9
:100C500001A90E4800F094F9012211460B4800F05A
:100C600091F81E208DF8000001208DF8010003206E
:100C70008DF8020001208DF803006846FFF746FC5E
:100C80000121024800F007F87FBD00000008004085
:100C9000CA430282704721B1028842F001020280F9
:100CA00004E002884FF6FE731A4002807047014646
:100CB000888E704730B50246002000230024158A34
:100CC00005EA0103958905EA010413B10CB101207D
:100CD00000E0002030BD000070B505460C462448F9
:100CE00085420ED0234885420BD0B5F1804F08D005
:100CF0002148854205D02148854202D020488542BE
:100D000000D100E000BF208850B92389A288618803
:100D10002846FFF785FDE188284600F004F925E024
:100D2000208804280AD12389A28861882846FFF7F1
:100D3000B7FDE188284600F0FFF817E02088082872
:100D40000AD12389A28861882846FFF7F5FDE1884A
:100D5000284600F0FEF809E02389A2886188284629
:100D6000FFF732FEE188284600F0FCF870BD000075
:100D7000002C014000340140000400400008004005
:100D8000000C00401AB183890B43838102E0838900
:100D90008B43838170470A460021018C4FF6FD7317
:100DA000194011430184704770B5002400220023CC
:100DB000058C4FF6EF7635400584028C8388048BD2
:100DC00048F6FF752C404FF6FF452C400D884FF636
:100DD000FF7606EA05252C434FF6DF752A400D897C
:100DE00006EA05152A434D8806EA05152A43154DDE
:100DF000A84202D0144DA8421DD14FF67F752A405B
:100E00004D894FF6FF7606EA05152A434FF6BF7562
:100E10002A408D8806EA05152A434FF6FF352B40F8
:100E20004FF2FF752B408D8906EA85052B43CD894E
:100E300006EA85052B4383800483CD8805870284D9
:100E400070BD0000002C0140003401400A46002122
:100E5000018B4FF2FF7319404FF6FF7303EA022331
:100E6000194301837047000070B50024002200235D
:100E7000058C4FF6FF6635400584028C8388848B91
:100E80004FF68F752C404FF6FC752C400D882C4387
:100E90004FF6FF552A400D894FF6FF7606EA0525E5
:100EA0002A434D8806EA05252A43154DA84202D05B
:100EB000144DA8421DD14FF2FF752A404D894FF6BF
:100EC000FF7606EA05252A434FF6FF352A408D882E
:100ED00006EA05252A434EF6FF752B404DF6FF75B1
:100EE0002B408D8906EA05152B43CD8906EA0515A9
:100EF0002B4383808483CD888587028470BD000066
:100F0000002C0140003401400A460021818B4FF63D
:100F1000F7731940114381837047018770478187B8
:100F2000704781847047028B4FF6F3731A40028337
:100F3000028B0A4302837047028B4FF2FF331A4041
:100F40000283028B4FF6FF7303EA01231A430283E5
:100F50007047828B4FF6F3731A408283828B0A4369
:100F600082837047828B4FF2FF331A408283828BD9
:100F70004FF6FF7303EA01231A4382837047000090
:100F8000002202881D4B98420ED01D4B98420BD078
:100F9000B0F1804F08D01B4B984205D01A4B9842B5
:100FA00002D01A4B984204D14FF68F731A404B88E7
:100FB0001A43174B984207D0164B984204D04FF66D
:100FC000FF431A40CB881A4302808B8883850B88A5
:100FD00003850A4B98420BD0094B984208D00E4B20
:100FE000984205D00D4B984202D00D4B984201D14A
:100FF0000B7A03860123838270470000002C014096
:10100000003401400004004000080040000C004093
:101010000010004000140040004001400044014026
:101020000048014010B540F225511D4800F04AF833
:1010300010B31B4800F002F9C4B21A48008800F44B
:101040000040C8B91748008800F4804060B10A2CFD
:1010500003D000201349088020E01248008840F4A3
:1010600000401049088019E00D2C06D10D48008879
:1010700040F480400B49088010E00A480088C0F323
:101080000D0009490C5407480088401C0549088098
:1010900008460088C72801DD0020088010BD000038
:1010A000003801401C0000203C00002021B1828952
:1010B00042F40052828104E082894DF6FF731A40A7
:1010C0008281704770B5024600240023002500206D
:1010D00040F66A16B14200D100BFC1F3421501F0DB
:1010E0001F03012606FA03F3012D02D1968933402E
:1010F00006E0022D02D1168A334001E0968A334081
:101100000C12012606FA04F41688344013B10CB10F
:10111000012000E0002070BDF0B503460024002649
:101120000025002040F66A17B94200D100BF1846DA
:10113000C1F3421401F01F06012707FA06F5012C3E
:1011400001D10C3004E0022C01D1103000E0143049
:101150001AB107682F43076002E00768AF430760D2
:10116000F0BD00002DE9F04786B005460E4600248C
:10117000A24600BFA1460027B08900B100BF2F469C
:101180002C8A4CF6FF700440F08804432C82AC8912
:101190004EF6F3100440B088318908437189084342
:1011A0000443AC81AC8A4FF6FF400440B08904434D
:1011B000AC8201A8FFF70EFA1F48874202D1DDF882
:1011C00010A001E0DDF80CA0A88900F4004040B1B7
:1011D0000AEBCA0000EB0A1031684900B0FBF1F8D5
:1011E00007E00AEBCA0000EB0A1031688900B0FB87
:1011F000F1F86420B8FBF0F004012009642101FB40
:101200001089A88900F4004040B1322000EBC900E9
:10121000B0FBF1F000F00700044308E0322000EBDF
:1012200009106421B0FBF1F000F00F0004432C81A1
:1012300006B0BDE8F087000000380140014688880C
:10124000C0F308007047000010B508218048FFF780
:1012500055F90A2000F032F908217D48FFF74CF9D2
:101260007C48007800F0800000287CD07948047821
:101270004FF6FF7101EA044477480088204484B2A5
:10128000AA206043754908600846006842F2107160
:1012900090FBF1F0714908600846006800287DDD88
:1012A00008460068B0F57A7F78DA08460068B0F53D
:1012B0007A7F1CDA08460068152818DD0120684985
:1012C000086000206749C1F8B00140F2DC5166486F
:1012D000FFF723FE012062490831086000206149C0
:1012E000C1F8B8014FF4E1615F48FFF718FE5B48B1
:1012F000006811281CDC594800680D2818DD012001
:101300005749086000205749C1F8B00140F2A46174
:101310005548FFF702FE01205149083108600020BE
:101320005049C1F8B80140F2A4614F48FFF7F7FDFA
:101330004A48006811281EDD4848006815281ADC54
:1013400001204749086000204649C1F8B00140F239
:10135000A4614548FFF7E1FD0120414908310860DB
:101360000020404900E06EE0C1F8B80140F2A461FD
:101370003D48FFF7D4FD394800680D281EDC37488A
:10138000006809281ADD0120354908600020354928
:10139000C1F8B00140F24651334800E050E0FFF799
:1013A000BCFD01202E490831086000202D49C1F8FC
:1013B000B80140F26C712C48FFF7B1FD2748006876
:1013C00009281CDC25480068052818DD012024496F
:1013D000086000202349C1F8B00140F26C71224836
:1013E000FFF79BFD01201E490831086000201D49C0
:1013F000C1F8B80140F214511B48FFF790FD17489F
:10140000006805281CDC15480068022818DD01204A
:101410001349086000201349C1F8B00140F26C7113
:101420001148FFF77AFD01200D49083108600020BE
:101430000C49C1F8B80140F2E2410B48FFF76FFDDB
:101440000020044908700548008880B210BD0000E3
:1014500000100140380000203A0000203400002035
:10146000AC012342000023420004004000BFFEE71D
:10147000014600BF7047000010B56FF00400FFF791
:1014800089F90A4800680A49B0FBF1F00949087077
:101490000846007800EB4001C1EBC0104FF6FF7129
:1014A00001EAC0000449088010BD000000000020CF
:1014B00000127A0014000020160000200146114A94
:1014C00012784A434FF0E0235A6100229A611A468B
:1014D000126942F001021A6100BF4FF0E022106968
:1014E00000F001021AB100F48032002AF5D04FF06A
:1014F000E022126922F001024FF0E0231A6100227B
:101500009A6170471400002000BF054A128802F05B
:101510004002002AF9D0C2B2014B1B1D1A8070474D
:1015200000380140FEF7F8FEFFF7A6FF4FF4A06079
:10153000FFF724F84FF4E13000F014F840F2CF2127
:1015400040F2CF70FFF7FCFA41F61F410920FFF788
:101550006FFB02E001A0FEF75BFEFBE768656C6CC9
:101560006F20000010B586B00446012144F204004B
:10157000FFF720F84FF40070ADF8140003208DF849
:10158000160018208DF8170005A91C48FEF729FF42
:101590004FF48060ADF8140004208DF8170005A901
:1015A0001648FEF71EFF25208DF8000003208DF859
:1015B00001008DF8020001208DF803006846FEF757
:1015C000A5FF01940020ADF80800ADF80A00ADF8C1
:1015D0000C00ADF810000C20ADF80E0001A9084871
:1015E000FFF7C0FD012240F225510548FFF794FDA9
:1015F00001210348FFF75AFD06B010BD0008014065
:101600000038014024160008000000203C000000C3
:101610006C010008601600083C0000202C07000048
:101620008801000800A24A04000000000000000039
:101630000102030406070809000000000000000082
:101640000000000000000102030401020304060779
:101650000809020406080000000000000000000065
:04000005080001CD21
:00000001FF
