:020000040800F2
:1000000048280020C9010008D10500081D05000886
:10001000CD050008610300088317000800000000F8
:10002000000000000000000000000000E90D0008D2
:100030006503000800000000D10C0008FD10000856
:10004000E3010008E3010008E3010008E301000800
:10005000E3010008E3010008E3010008E3010008F0
:10006000E3010008E3010008E3010008E3010008E0
:10007000E3010008E3010008E3010008E3010008D0
:10008000E3010008E3010008E3010008E3010008C0
:10009000E3010008E3010008E3010008E3010008B0
:1000A000E3010008E3010008E3010008E3010008A0
:1000B000E301000861110008E3010008E301000802
:1000C000E3010008E3010008E3010008E301000880
:1000D000E301000861150008E3010008E3010008DE
:1000E000E3010008E3010008E301000800F002F862
:1000F00000F05AF80AA090E8000C82448344AAF168
:100100000107DA4501D100F04FF8AFF2090EBAE865
:100110000F0013F0010F18BFFB1A43F0010318473B
:10012000B4380000D43800000A444FF0000C10F836
:10013000013B13F0070408BF10F8014B1D1108BF65
:1001400010F8015B641E05D010F8016B641E01F805
:10015000016BF9D113F0080F1EBF10F8014BAD1C55
:100160000C1B09D16D1E58BF01F801CBFAD505E073
:1001700014F8016B01F8016B6D1EF9D59142D6D3CD
:10018000704700000023002400250026103A28BFF5
:1001900078C1FBD8520728BF30C148BF0B607047F9
:1001A0001FB51FBD10B510BD00F096F81146FFF742
:1001B000F7FF01F093FC00F0C8F803B4FFF7F2FF7B
:1001C00003BC01F0E0FA00000948804709480047F5
:1001D000FEE7FEE7FEE7FEE7FEE7FEE7FEE7FEE7F7
:1001E000FEE7FEE704480549054A064B7047000054
:1001F00001110008ED0000084822002048280020D6
:100200004824002048240020704700000FB404490F
:1002100010B503AA029800F031F810BC5DF814FB89
:10022000701C00204FF0000200B51346944696461D
:10023000203922BFA0E80C50A0E80C50B1F12001F9
:10024000BFF4F7AF090728BFA0E80C5048BF0CC0A7
:100250005DF804EB890028BF40F8042B08BF704705
:1002600048BF20F8022B11F0804F18BF00F8012B77
:10027000704770477047704770470000074B70B574
:100280000D467B4400F011F80446284600F020F8A3
:1002900010B14FF0FF3070BD204670BDE315000077
:1002A00001694A1C02610878704700B58FB0CDE93A
:1002B00001310021059105497944CDE9031011462A
:1002C000684600F02EF80FB000BD0000E5FFFFFF0C
:1002D000007B00F080007047754600F03DF8AE46A8
:1002E00005006946534620F00700854618B020B542
:1002F000FFF778FFBDE820404FF000064FF0000701
:100300004FF000084FF0000B21F00701AC46ACE8BD
:10031000C009ACE8C009ACE8C009ACE8C0098D462A
:1003200070472DE9F04106460024D6E90170F568D2
:100330008046304603E04146B847641C3046A84733
:100340000028F8D12046BDE8F0810446AFF30080D4
:100350002046FFF732FF000000487047E4210020EC
:1003600000BFFEE770472DE9F04102460025002658
:10037000002000230024002791F803C00CF00F0593
:1003800091F803C00CF0100CBCF1000F03D091F8F1
:1003900002C04CEA050591F800C0BCF1000F31D055
:1003A000146800202BE04FF0010C0CFA00F3B1F8B8
:1003B00000C00CEA03069E4220D183004FF00F0CD0
:1003C0000CFA03F7BC4305FA03FC4CEA040491F869
:1003D00003C0BCF1280F06D14FF0010C0CFA00FC51
:1003E000C2F814C00AE091F803C0BCF1480F05D16F
:1003F0004FF0010C0CFA00FCC2F810C0401C082899
:10040000D1D31460B1F800C0BCF1FF0F34DD5468E3
:1004100000202EE000F1080C4FF0010808FA0CF360
:10042000B1F800C00CEA03069E4221D183004FF0D0
:100430000F0C0CFA03F7BC4305FA03FC4CEA040466
:1004400091F803C0BCF1280F05D100F1080C08FA9F
:100450000CF8C2F8148091F803C0BCF1480F07D122
:1004600000F1080C4FF0010808FA0CF8C2F81080EF
:10047000401C0828CED35460BDE8F081F0B50A4690
:10048000002300240021002500F00046B6F1004FB3
:1004900002D11D4EF16901E01B4E7168C0F30345A6
:1004A00083B200F44016B6F5401F08D121F0706108
:1004B000154E766826F07066134F7E6012E000F4E9
:1004C0008016B6F5801F06D1032606FA05F4A1436F
:1004D00041F0706106E0460D360103FA06F6B143BD
:1004E00041F0706122B1460D360103FA06F6314340
:1004F00000F00046B6F1004F02D1034EF16101E079
:10050000014E7160F0BD00000000014001468868A6
:1005100080B27047416170470161704700BFFEE7DC
:1005200010B54FF480510948FFF7F6FF4FF4006112
:100530000648FFF7F1FF4FF480510448FFF7EAFF48
:100540004FF400610148FFF7E5FF10BD00080140CE
:1005500010B54FF400610748FFF7DEFF4FF48051FC
:100560000448FFF7D7FF4FF480510248FFF7D4FF4C
:1005700010BD00000008014010B54FF400610448B0
:10058000FFF7CAFF4FF400610148FFF7C3FF10BD3A
:100590000008014008B50121042000F0ABFB0F204A
:1005A000ADF8000010208DF8030069460648FFF7FB
:1005B000DAFEF020ADF8000048208DF8030069460F
:1005C0000148FFF7D0FE08BD0008014000BFFEE76C
:1005D0007047000070B5002100230F22C47804B3D7
:1005E000154C246804F4E064C4F5E064210AC1F108
:1005F0000403CA40447804FA03F184781440214388
:1006000009010E4C0678A155047804F01F05012459
:10061000AC4005786D11AD0005F1E025C5F800414D
:1006200009E0047804F01F050124AC40044D06786D
:10063000761145F8264070BD0CED00E000E400E0C6
:1006400080E100E002490143024A11607047000066
:100650000000FA050CED00E070B500240CE0002568
:1006600006E00020074901EBC5010855681CC5B22A
:10067000802DF6DB601CC4B2082CF0DB00F00AF918
:1006800070BD0000781C002070B50B46CE1701EB42
:100690005676C6F3C702CE1701EB5676F610A1EBDD
:1006A000C606F4B20123A340DDB20E4B03EBC00338
:1006B0009B5CDB430B4E06EBC006B354094B03EBCC
:1006C000C0039B5C2B43074E06EBC006B354054B9F
:1006D00003EBC0039B5CDB43024E06EBC006B35446
:1006E00070BD0000781C002070B50A46CE1701EBE3
:1006F0005676C6F3C703CE1701EB5676F610A1EB7C
:10070000C606F4B20122A240D5B2054A02EBC002ED
:10071000D25C2A43024E06EBC006F25470BD0000C4
:10072000781C002008B50121042000F0E3FA4FF402
:10073000C050ADF8000010208DF8030003208DF8A4
:10074000020069464B48FFF70EFE4FF4E05149485E
:10075000FFF7E2FE0121082000F0CCFA4FF4807090
:10076000ADF8000010208DF8030003208DF8020082
:1007700069464148FFF7F7FD4FF480713E48FFF7A7
:10078000CBFE642001F024F8C82001F021F80021FC
:10079000AE2000F002FA0021084600F0FEF9002128
:1007A000102000F0FAF90021402000F0F6F90021B5
:1007B000812000F0F2F90021CF2000F0EEF90021B5
:1007C000A12000F0EAF90021C82000F0E6F900219C
:1007D000A62000F0E2F90021A82000F0DEF90021B7
:1007E0003F2000F0DAF90021D32000F0D6F90021F3
:1007F000084600F0D2F90021D52000F0CEF9002102
:10080000802000F0CAF90021D92000F0C6F90021AB
:10081000F12000F0C2F90021DA2000F0BEF9002139
:10082000122000F0BAF90021DB2000F0B6F9002117
:10083000402000F0B2F90021202000F0AEF90021A4
:10084000022000F0AAF900218D2000F0A6F9002175
:10085000142000F0A2F90021A42000F09EF900214C
:10086000A62000F09AF90021AF2000F096F9FFF7DA
:10087000F3FE08BD00080140000C014010B502461F
:10088000012000E050430B00A1F10104E1B2F9D1D5
:1008900010BD000070B500241CE004F1B001C8B226
:1008A000002100F07AF90021084600F076F90021D5
:1008B000102000F072F9002508E0084901EBC5019D
:1008C000085D012100F069F9681CC5B2802DF4DBD8
:1008D000601CC4B2082CE0DB70BD0000781C002056
:1008E0002DE9FF4F81B080460E461C4600962046FB
:1008F000E31704EB5373DB1021464FEAE47C04EB6F
:100900005C7C4FEAEC0CA4EBCC0CBCF1000F02D0E9
:100910004FF0010C01E04FF0000C6344224604EB61
:10092000D27C4FEA6C0C03FB0CF303F0FF0B039833
:100930002038C7B2002547E00C2C07D107EB470051
:10094000234901EB800010F805A014E0102C05D11C
:10095000204800EB071010F805A00CE0182C07D178
:1009600007EBC7001C4901EB800010F805A002E06E
:1009700005B0BDE8F08F4FF000091FE00AF08000DD
:1009800020B131464046FFF7AFFE03E03146404616
:10099000FFF77AFE4FEA4A604FEA106A701CC6B24F
:1009A0000098301AA04205D1009E08F1010000F025
:1009B000FF0806E009F1010000F0FF09B9F1080F96
:1009C000DCDB00BF681CC5B25D45B5DB00BFCFE70F
:1009D0001222000886260008762C00082DE9FF4F19
:1009E0000746884691461C464FF0000B0297CDF80B
:1009F00004802046E11704EB5171C1F3C701009157
:100A000060E009FB04F0C11700EB51710BEBE10151
:100A1000CEB20BF1010000F0FF0B002550E0102CCE
:100A200005D12C4800EB0610405D03901BE0182C0C
:100A300007D106EBC600284901EBC000405D0390DA
:100A400011E0202C05D1254800EBC610405D039035
:100A500009E0402C05D1224800EB4620405D039080
:100A600001E0BDE8FF8F4FF0000A17E0039800F0A7
:100A7000010020B141463846FFF736FE03E041460B
:100A80003846FFF701FE03984010039008F101007B
:100A900000F0FF080AF1010000F0FF0ABAF1080FA8
:100AA000E4DB781CC7B20298381AA04204D1029F36
:100AB00001980830C0B20190DDF80480681CC5B20E
:100AC000A542ACDB0098411EC9B20091002898D124
:100AD00000BFC6E73108002091090020690A002004
:100AE000690C00202DE9F04F06468A4691461F46C4
:100AF000099C00252CE0781B401EC1B20A20FFF79C
:100B0000BDFEB9FBF0F00A21B0FBF1F201FB1208C7
:100B1000B8F1000F0CD1A34604EBDB71491001FBC7
:100B20000561C8B2234630225146FFF7D9FE0DE0D9
:100B3000A34604EBDB71491001FB0561C8B208F163
:100B40003001CAB223465146FFF7CAFE681CC5B23F
:100B5000BD42D0DBBDE8F08FF0B506460F46144627
:100B60001D4613E022782B4639463046FFF7B8FE83
:100B7000284605EBD07106EB6101CEB2C5F18000CD
:100B8000B04202DA0026B81CC7B2641C20782028C4
:100B900002DB20787E28E5DDF0BD70B505460C4609
:100BA000FFF7BEFC782000F021F9FFF7E5FC1CB14F
:100BB000402000F01BF902E0002000F017F9FFF7D9
:100BC000DBFC284600F012F9FFF7D6FCFFF7C0FC6B
:100BD00070BD000000200749086048608860C86058
:100BE0000862C8614FF07E500861034848610348BD
:100BF00088617047F82000209A99193ECDCCCC3DF1
:100C00002DE9F0470446304800889F2803DD2E4830
:100C10000088A12854DB2D4804602B48008801F08F
:100C2000A3F92A4948600A465168106801F07CFA25
:100C3000264988600A469168506901F0A9F905467D
:100C40002248016A284601F0F1F820490862086A42
:100C500001F04EF9051E01DB284600E06842B0F5C0
:100C6000967F02DD002019490862184AD168906811
:100C700001F05AFA814615488169484601F088F921
:100C80000646124A9168106901F082F980463146A1
:100C900001F0CCF805460D48016A284601F0C6F877
:100CA0000A49C86108468068C8600846C06948604B
:100CB000486801F039F9074604484068BDE8F08704
:100CC00002484068FAE7000000080020F8200020F1
:100CD0007047000029B1064AD2690243044BDA6129
:100CE00004E0034AD2698243014BDA617047000095
:100CF0000010024029B1064A92690243044B9A61EE
:100D000004E0034A92698243014B9A6170470000F4
:100D10000010024030B500210022002400232D4D98
:100D20006D6805F00C0121B1042905D0082923D1F3
:100D300005E0294D056022E0274D05601FE0254DA7
:100D40006D6805F47012234D6D6805F4803402253A
:100D500005EB92421CB9214D554305600BE01D4D3A
:100D60006D6805F400351DB11C4D5543056002E06A
:100D7000194D5543056002E0174D056000BF00BFE7
:100D8000144D6D6805F0F0010909154D6B5C05689F
:100D9000DD4045600F4D6D6805F4E061090A104DB6
:100DA0006B5C4568DD4085600A4D6D6805F46051F7
:100DB000C90A0B4D6B5C4568DD40C560054D6D682B
:100DC00005F44041890B074D6B5CC568B5FBF3F535
:100DD000056130BD0010024000127A0000093D009C
:100DE0001C0800202C0800207047000070B5044645
:100DF000002520E04FF400611048FFF78BFB04F062
:100E0000800028B14FF480510C48FFF785FB04E0C7
:100E10004FF480510948FFF77DFB4FF4006107480C
:100E2000FFF77AFB4FF400610448FFF773FB60069D
:100E3000040E681CC5B2082DDCDB70BD0008014043
:100E400010B500F001F810BD0CB500200190009025
:100E50003348006840F480303149086000BF3048B2
:100E6000006800F4003000900198401C0190009848
:100E700018B90198B0F5A06FF1D12948006800F4C5
:100E8000003010B10120009001E000200090009897
:100E9000012843D12348006840F010002149086030
:100EA0000846006820F0030008600846006840F02B
:100EB000020008601A4840681949486008464068BE
:100EC00048600846406840F48060486008464068D2
:100ED00020F47C1048600846406840F4E810486000
:100EE0000846006840F08070086000BF0C48006849
:100EF00000F000700028F9D00948406820F0030095
:100F0000074948600846406840F00200486000BF5A
:100F10000348406800F00C000828F9D10CBD00001F
:100F2000001002400020024008B5FFF753FEFFF713
:100F300093FB1023062200210846FFF74FFD1023E4
:100F4000072200211420FFF749FD10230822002169
:100F50002820FFF743FD1023092200213C20FFF742
:100F60003DFD102350A214210020FFF7F5FD1023B2
:100F70004EA214213C20FFF7EFFD10234CA22821A4
:100F80000020FFF7E9FDFFF785FC8CE04A48008868
:100F900000F400400028F8D0484800783038642138
:100FA000484346494978303901EB810100EB410162
:100FB0004248807830380844414908803F48C0782A
:100FC0003038642148433D490979303901EB8101CA
:100FD00000EB4101394840793038084439490880EC
:100FE0003648807930384FF47A7148433349C979AB
:100FF000303901EBC10202EB011100EB81012F48F6
:10100000007A303800EB800001EB40012B48407A39
:10101000303808442C4908801020032300902848C9
:10102000028814211E20FFF75DFD1020032300908D
:101030002448028814215A20FFF754FD102004236D
:1010400000902148028828213220FFF74BFDFFF74E
:1010500021FC1E48FFF7D4FD06461D4804882046A3
:1010600000F082FF0746314600F0E0FE054600F042
:101070005BFF044640F22970844201D9044604E033
:1010800040F28F40844200D20446A1B210483C385E
:1010900000F00FFA002003E00021084A1154401C20
:1010A0000F28F9DB00BF71E743583A0043593A0073
:1010B0004C656E67683A0000741C00201C210020FB
:1010C000000800200208002004080020000020433F
:1010D0003C040040042808D14FF0E021096941F0A8
:1010E00004014FF0E022116107E04FF0E0210969AF
:1010F00021F004014FF0E0221161704770470000B9
:1011000010B51348006840F0010011490860084616
:101110004068104908400E494860084600680E497A
:1011200008400B4908600846006820F480200860E9
:101130000846406820F4FE0048604FF41F008860B5
:10114000FFF77EFE4FF000600449086010BD00000C
:10115000001002400000FFF8FFFFF6FE08ED00E07F
:1011600010B50121084800F08CF858B1012106485B
:1011700000F078F80548006808B9012000E0002078
:101180000249086010BD00000004004080012242B6
:1011900030B589B005460C4601210220FFF79AFDC3
:1011A00001210920FFF7A6FD01212B48FFF766F971
:1011B0002320ADF8200018208DF8230003208DF89F
:1011C000220008A92548FFF7CEF8ADF81850ADF871
:1011D00014400020ADF81A00ADF8160005A920480B
:1011E00000F06CF97020ADF804000120ADF80600A5
:1011F0000220ADF80C0001A9194800F053F8702046
:10120000ADF804000120ADF806000220ADF80C0096
:1012100001A9134800F0A6F87020ADF804000120E1
:10122000ADF806000220ADF80C0001A90C4800F052
:10123000F3F808210A4800F087F80821084800F070
:10124000E1F80821064800F025F90121044800F0E2
:101250000CF809B030BD000000081A00000C014075
:1012600000040040CA430282704721B1028842F064
:101270000102028004E002884FF6FE731A400280E9
:10128000704730B50246002000230024158A05EA85
:101290000103958905EA010413B10CB1012000E0B6
:1012A000002030BD70B5002400220023058C4FF6CD
:1012B000EF7635400584028C8388048B48F6FF75F1
:1012C0002C404FF6FF452C400D884FF6FF7606EA7E
:1012D00005252C434FF6DF752A400D8906EA0515D2
:1012E0002A434D8806EA05152A43154DA84202D027
:1012F000144DA8421DD14FF67F752A404D894FF6F7
:10130000FF7606EA05152A434FF6BF752A408D88F9
:1013100006EA05152A434FF6FF352B404FF2FF75BD
:101320002B408D8906EA85052B43CD8906EA850584
:101330002B4383800483CD880587028470BD000021
:10134000002C0140003401400A460021018B4FF27D
:10135000FF7319404FF6FF7303EA02231943018319
:101360007047000070B5002400220023058C4FF662
:10137000FF6635400584028C8388848B4FF68F7519
:101380002C404FF6FC752C400D882C434FF6FF5532
:101390002A400D894FF6FF7606EA05252A434D8837
:1013A00006EA05252A43154DA84202D0144DA8424D
:1013B0001DD14FF2FF752A404D894FF6FF7606EAA0
:1013C00005252A434FF6FF352A408D8806EA052574
:1013D0002A434EF6FF752B404DF6FF752B408D8945
:1013E00006EA05152B43CD8906EA05152B438380B4
:1013F0008483CD888587028470BD0000002C014065
:10140000003401400A460021818B4FF6F7731940E2
:10141000114381837047000070B50022002300242F
:10142000058C4EF6FF7635400584038C8488828BCC
:1014300048F6FF752A404FF6FF452A400D884FF6C3
:10144000FF7606EA05252A434DF6FF752B400D89E8
:1014500006EA05352B434D8806EA05352B430B4D2F
:10146000A84202D00A4DA84208D14BF6FF752C4085
:101470008D894FF6FF7606EA85152C43848082839A
:10148000CD88A0F84050038470BD0000002C0140BE
:10149000003401400A460021818B4FF2FF7319404E
:1014A0004FF6FF7303EA02231943818370470187D4
:1014B000704781877047A0F840107047002202886B
:1014C0001D4B98420ED01D4B98420BD0B0F1804F6F
:1014D00008D01B4B984205D01A4B984202D01A4BA9
:1014E000984204D14FF68F731A404B881A43174B1A
:1014F000984207D0164B984204D04FF6FF431A404B
:10150000CB881A4302808B8883850B8803850A4B1E
:1015100098420BD0094B984208D00E4B984205D008
:101520000D4B984202D00D4B984201D10B7A0386A5
:101530000123838270470000002C014000340140E9
:101540000004004000080040000C00400010004073
:1015500000140040004001400044014000480140A8
:1015600010B540F225511D4800F04AF810B31B4851
:1015700000F002F9C4B21A48008800F40040C8B96B
:101580001748008800F4804060B10A2C03D0002086
:101590001349088020E01248008840F400401049B8
:1015A000088019E00D2C06D10D48008840F48040D9
:1015B0000B49088010E00A480088C0F30D00094973
:1015C0000C5407480088401C0549088008460088DC
:1015D000C72801DD0020088010BD00000038014050
:1015E000741C00201C21002021B1828942F4005289
:1015F000828104E082894DF6FF731A408281704730
:1016000070B50246002400230025002040F66A162B
:10161000B14200D100BFC1F3421501F01F03012602
:1016200006FA03F3012D02D19689334006E0022D1C
:1016300002D1168A334001E0968A33400C1201260B
:1016400006FA04F41688344013B10CB1012000E00E
:10165000002070BDF0B503460024002600250020C0
:1016600040F66A17B94200D100BF1846C1F34214D0
:1016700001F01F06012707FA06F5012C01D10C30F5
:1016800004E0022C01D1103000E014301AB10768D8
:101690002F43076002E00768AF430760F0BD00001A
:1016A0002DE9F04786B005460E460024A24600BF4D
:1016B000A1460027B08900B100BF2F462C8A4CF606
:1016C000FF700440F08804432C82AC894EF6F3107E
:1016D0000440B08831890843718908430443AC81D0
:1016E000AC8A4FF6FF400440B0890443AC8201A8A5
:1016F000FFF710FB1F48874202D1DDF810A001E080
:10170000DDF80CA0A88900F4004040B10AEBCA0043
:1017100000EB0A1031684900B0FBF1F807E00AEB72
:10172000CA0000EB0A1031688900B0FBF1F86420B0
:10173000B8FBF0F004012009642101FB1089A8899D
:1017400000F4004040B1322000EBC900B0FBF1F0E2
:1017500000F00700044308E0322000EB0910642188
:10176000B0FBF1F000F00F0004432C8106B0BDE89F
:10177000F08700000038014001468888C0F3080067
:10178000704700BFFEE700BF7047000010B56FF064
:101790000400FFF79FFC0A4800680A49B0FBF1F01B
:1017A000094908700846007800EB4001C1EBC01001
:1017B0004FF6FF7101EAC0000449088010BD000027
:1017C0000808002000127A006A1C00206C1C00200F
:1017D0000146114A12884A434FF0E0235A61002221
:1017E0009A611A46126942F001021A6100BF4FF075
:1017F000E022106900F001021AB100F48032002AE0
:10180000F5D04FF0E022126922F001024FF0E02300
:101810001A6100229A6170476C1C00200146114A2F
:1018200012784A434FF0E0235A6100229A611A4627
:10183000126942F001021A6100BF4FF0E022106904
:1018400000F001021AB100F48032002AF5D04FF006
:10185000E022126922F001024FF0E0231A61002217
:101860009A6170476A1C002000BF054A128802F086
:101870004002002AF9D0C2B2014B1B1D1A807047EA
:101880000038014070B50F26002500240F21914833
:10189000FEF740FE0A20FFF7C1FF8E48FEF736FE36
:1018A000C5B20120FFF7BAFF8B480078002876D038
:1018B000F02DFCD00A20FFF78BFF0020864908702E
:1018C0008448FEF723FEC5B2F02D69D0702D68D094
:1018D000B02D7ED0D02D3CD0E02D77D10F217D488A
:1018E000FEF71AFE01217B48FEF714FE0A20FFF7DF
:1018F00095FF7848FEF70AFEC4B2EE2C01D101260E
:1019000026E00F217348FEF707FE02217148FEF71B
:1019100001FE0120FFF782FF6E48FEF7F7FDC4B21B
:10192000ED2C01D1042613E00F216A48FEF7F4FDE7
:1019300004216848FEF7EEFD0120FFF76FFF6548C0
:10194000FEF7E4FDC4B2EB2C01D1072600E000262F
:10195000B7E00F215F48FEF7DFFD01215D48FEF78C
:10196000D9FD0120FFF75AFF5A48FEF7CFFDC4B258
:10197000DE2C01D102262BE00F215648FEF7CCFDCC
:1019800002215448FEF7C6FD0120FFF747FF5148EA
:10199000FEF7BCFDC4B2DD2C05D1052618E091E0B0
:1019A00095E051E015E00F214A48FEF7B5FD04210E
:1019B0004848FEF7AFFD0120FFF730FF4548FEF72E
:1019C000A5FDC4B2DB2C02D1082601E077E00E268B
:1019D00077E00F213F48FEF79FFD01213D48FEF7CC
:1019E00099FD0120FFF71AFF3A48FEF78FFDC4B2B8
:1019F000BE2C01D1032626E00F213648FEF78CFDD0
:101A000002213448FEF786FD0120FFF707FF314829
:101A1000FEF77CFDC4B2BD2C01D1062613E00F21D8
:101A20002C48FEF779FD04212A48FEF773FD0120BA
:101A3000FFF7F4FE2748FEF769FDC4B2BB2C01D1C5
:101A4000092600E00F263CE00F212248FEF764FD46
:101A500001212048FEF75EFD0120FFF7DFFE1D4853
:101A6000FEF754FDC4B27E2C01D1642626E00F217E
:101A70001848FEF751FD02211648FEF74BFD0120E4
:101A8000FFF7CCFE1348FEF741FDC4B27D2C01D117
:101A9000E60013E00F210F48FEF73EFD04210D483C
:101AA000FEF738FD0120FFF7B9FE0A48FEF72EFDCC
:101AB000C4B27B2C01D10C2600E0102601E00E20E0
:101AC00070BD04E0F02D02D10120034908703046BA
:101AD000F6E70000000801403008002088B000BF91
:101AE00000270025182102A8FEF79CFBFFF708FB42
:101AF0004FF4A060FEF7A6FDFFF748FE4FF4E1307B
:101B000000F044F9FEF746FD472144F61F60FFF759
:101B10003FFBFEF707FE1023002211461046FEF79A
:101B20005DFF1023012200211420FEF757FF102330
:101B3000022200212820FEF751FF1023032200215A
:101B40003C20FEF74BFF1023042200215020FEF71B
:101B500045FF1023052200216420FEF73FFF1023DC
:101B600085A212210420FEF7F7FF102383A2122181
:101B70004820FEF7F1FFFEF78DFE40F6FC0180489D
:101B8000FFF795FC40F2DC517D48FFF792FC4FF4E3
:101B900048717B48FFF78FFC7AA0FEF737FBEAE03D
:101BA000FFF770FE8146B9F10F0F3FD2DFE809F071
:101BB000080D12171C21262B30353E3E3E3E3A00C2
:101BC00000266D1C4FF00F0930E001266D1C4FF010
:101BD0000F092BE002266D1C4FF00F0926E00326AB
:101BE0006D1C4FF00F0921E004266D1C4FF00F090A
:101BF0001CE005266D1C4FF00F0917E006266D1C32
:101C00004FF00F0912E007266D1C4FF00F090DE091
:101C100008266D1C4FF00F0908E009266D1C4FF0D7
:101C20000F0903E00E264FF00F0900BF00BF02A806
:101C300040F82560032D68D14FF0000A6421039815
:101C40004843049901EB810100EB410005994418D8
:101C5000102003232246122100901620FEF742FF97
:101C6000FEF718FEB4F5967F04D14FF41461444892
:101C7000FFF71DFCB4F5917F04D140F642114048B6
:101C8000FFF715FCB4F58C7F04D140F645113C48B4
:101C9000FFF70DFCB4F5877F04D140F643113848B7
:101CA000FFF705FCB4F5827F04D140F64E113448AD
:101CB000FFF7FDFBFA2C04D140F647113048FFF73F
:101CC000F6FBF02C04D140F65D112D48FFF7EFFB39
:101CD000E62C04D140F666112948FFF7E8FBDC2C1E
:101CE00004D140F66F112648FFF7E1FBD22C04D156
:101CF00040F679112248FFF7DAFBC82C04D140F6F0
:101D000082111F48FFF7D3FB00BF052D2FD1DDE95E
:101D1000061001EB810100EB4107C7EBC70000F2A1
:101D20001458102002233A46122100905C20FEF73E
:101D3000D9FEFEF7AFFD1FFA88F11148FFF7B9FB96
:101D400000254FF6E850FFF743FD4FF6E850FFF748
:101D50003FFD4FF461710A48FFF7ADFB4FF47A7015
:101D6000FFF736FD4FF42F710548FFF7A4FB0E2E49
:101D700001D1FFF7D9F813E7643D0000633D00008F
:101D8000000400404F4B0D0A0000000010B586B063
:101D90000446012144F20400FEF7ACFF4FF400704A
:101DA000ADF8140003208DF8160018208DF81700E8
:101DB00005A91C48FEF7D7FA4FF48060ADF814006F
:101DC00004208DF8170005A91648FEF7CCFA252047
:101DD0008DF8000003208DF801008DF8020001202D
:101DE0008DF803006846FEF7F5FB01940020ADF87E
:101DF0000800ADF80A00ADF80C00ADF810000C209A
:101E0000ADF80E0001A90848FFF74AFC012240F294
:101E100025510548FFF71EFC01210348FFF7E4FBAD
:101E200006B010BD000801400038014090EA010FE3
:101E300048BF81F0004100F17E81421A3CBF801A08
:101E400089184FEAD0524FF07F4C1CEA410FA2EBA9
:101E5000D15318BF9CEA026F00F03B804FF0004C5A
:101E60004CEA00204CEA012121FA03FC10EB0C0C97
:101E70001ED202F1FF325FEA1C2040EBC25038BF95
:101E800070471CF07F0F4FEA400C18BFBCF17F4F2A
:101E900038BF7047C3F12003994008BF20F001000C
:101EA000BCF17F4F38BF7047A0F1C04000F037B998
:101EB0004FEA3C00000A40EBC25028BF1CF0FF0F65
:101EC0004FEA400CE6D018BFBCF17F4F38BF7047D7
:101ED000EAE79CEA026F05D010EA5C0F08BF00F049
:101EE0000040704710B500F0D4F800BF64FBBE3E60
:101EF00041000B0ED3F19E0208D950F400034FEAC3
:101F0000032323FA02F048BF4042704710B500F0A7
:101F1000C0F800BF49922480002070476FF0004253
:101F200082EA200070470000C10DD1F19E0206DB5D
:101F30004FEA002343F0004323FA02F070470042C7
:101F400007D54FEA4001B1F1FE4F02D24FF0000039
:101F5000704710B500F09DF849922480002070472A
:101F60006FEA200070470000B0FA80F310FA03F225
:101F7000C3F19D030AD0D90501EB1220530638BFE7
:101F8000704700F1010008BF20F001007047000019
:101F90004FF47F0C1CEAD0121EBF1CEAD11392EA48
:101FA0000C0F93EA0C0F00F0478090EA010F48BF36
:101FB00042F480724FF0004C4CEA00204CEA0121C0
:101FC00002EB0302A0FB0113A2F50002002918BFD7
:101FD00043F001035B0028BF4FEA330342EB224288
:101FE0005FEA132C4CEBC2502EBFBCEB436FB2F533
:101FF0007C0F70474FEA036CBCF1004F08BF20F024
:102000000100B2F57C0F38BF70470BD582F0FF029C
:1020100012F5803FC8BF704700F1C040D8BF00F044
:102020000040704700F5000C5FEA4C0C48BF704759
:10203000B0F1C04000F073B890EA010F0CEAD11380
:1020400048BF42F48072624538BF634504D280EADB
:10205000010000F00040704710B500F01AF800BF12
:102060008900013E00F007B800F009B85FEA410CB2
:102070005FEA1C6C08D080EA010000F050B85FEA0B
:10208000400C5FEA1C6CF6D14FF00040A0F58000D8
:1020900070470EF1020E2EF0030E5EF8044B244240
:1020A00004D44FEA4102B2F17F4F11D84FEA400306
:1020B000B3F17F4F0CD80ED14FEAD07CB2F17F4FF5
:1020C0000CEB4C0C0CF1020C08BF4CEBD17C04E087
:1020D0004FF0080C01E04FEAD17C0CEB4C0324FAE2
:1020E00003F404F00704B4F1040C06D20EEB840CE4
:1020F000BDE810404CF0010C6047DFE80CF0070829
:1021000002024FF00040A0F5800010BD08464200DA
:1021100018BFD2F1807288BF00F0004010BDFF21CF
:1021200041EAD050C005704790EA010F48BF81F0E6
:1021300000413FF582AE421A04D882F00042A0EB83
:10214000020011444FEAD0524FF07F4C1CEA410F7D
:10215000A2EBD15318BF9CEA026F4AD04FF0004C5B
:102160004CEA00204CEA012121FA03FCB0EB0C0CF4
:102170000FD412F0FE0F36D05FEA4C001DD50012CE
:1021800040EBC25038BF70471CF03F0F18BF70477C
:102190000BE0A2F101025FEA1C2040EBC25038BF05
:1021A00070471CF07F0F18BF7047C3F120039940A0
:1021B00014BF401E20F00100704780084FEA122330
:1021C00008BF7047B0FA80FCA2EB0C02CCF1280CDF
:1021D00060FA0CF093EA122F04BF00EBC250704774
:1021E0004FEAC3707047130A5FEADC1008BF7047FC
:1021F000F6E79CEA026F04D010EA5C0F08BF0020EB
:10220000704710B5FFF745FF40DFF63E81F0004014
:102210007047000000000000000000000000000007
:1022200000003F40000000000000000030004000BF
:1022300030004000000009000BC03D000BC03D0015
:10224000090018C024407FE02240318000001800BF
:1022500024C01B000D803240018003801C402740B9
:102260001C800740004010006000000000000000DB
:1022700000000000000000001F80204040200000FF
:10228000402020401F8000000000090006001F8041
:10229000060009000000040004003F800400040060
:1022A00000000010006000000000000000000400BA
:1022B00004000400040004000000000000400000CE
:1022C000000000000000002001C0060038004000AF
:1022D00000001F802040204020401F8000000000A0
:1022E00010403FC000400000000018C021402240C4
:1022F00024401840000010802040244024401B80CF
:10230000000002000D0011003FC0014000003C80B1
:10231000244024402440238000001F802440244087
:102320003440038000003000200027C03800200027
:1023300000001B802440244024401B8000001C001F
:1023400022C0224022401F80000000000000084000
:102350000000000000000000000004600000000019
:102360000000000004000A00110020804040090025
:102370000900090009000900000000004040208019
:1023800011000A0004001800200023402400180057
:1023900000001F802040274029401F4000000040CF
:1023A00007C039000F0001C0004020403FC024405A
:1023B00024401B8000001F802040204020403080AF
:1023C000000020403FC0204020401F8000002040EF
:1023D0003FC024402E4030C0000020403FC0244079
:1023E0002E00300000000F0010802040224033807B
:1023F000020020403FC0040004003FC020402040B5
:1024000020403FC0204020400000006020202020CD
:102410003FC02000200020403FC024400B0030C0BF
:10242000204020403FC020400040004000C03FC04E
:102430003C0003C03C003FC0000020403FC00C40B7
:1024400023003FC020001F802040204020401F80EC
:10245000000020403FC024402400180000001F80DE
:102460002140214020E01FA0000020403FC0244028
:10247000260019C0004018C024402440224031806A
:102480000000300020403FC020403000000020000D
:102490003F80004000403F80200020003E0001C0FF
:1024A000070038002000380007C03C0007C0380093
:1024B0000000204039C0060039C020400000200044
:1024C000384007C0384020000000304021C026407E
:1024D000384020C00000000000007FE04020402085
:1024E0000000000070000C000380004000000000AD
:1024F000402040207FE0000000000000200040005D
:10250000200000000000001000100010001000105B
:10251000001000000000400000000000000000006B
:1025200002800540054003C0004020003FC0044039
:102530000440038000000000038004400440064083
:10254000000000000380044024403FC00040000021
:1025500003800540054003400000000004401FC008
:10256000244024402000000002E0055005500650A1
:10257000042020403FC00440040003C0004000008D
:10258000044027C0004000000000001000100410AC
:1025900027E00000000020403FC00140070004C0C9
:1025A0000440204020403FC000400040000007C0E1
:1025B000040007C0040003C00000044007C004403A
:1025C000040003C000400000038004400440038076
:1025D0000000041007F004500440038000000000D5
:1025E00003800440045007F00010044007C002407C
:1025F000040004000000000006400540054004C03F
:102600000000000004001F8004400040000004009F
:1026100007800040044007C000400400070004C0D9
:10262000018006000400060001C0070001C006008A
:102630000000044006C0010006C004400000041071
:10264000071004E00180060004000000044005C0FB
:102650000640044000000000000004007BE0402031
:102660000000000000000000FFF00000000000007B
:1026700040207BE00400000000004000800040009B
:1026800020002000400000000000000000000000CA
:102690000000000000000000000000001FCC000C43
:1026A000000000000000000008003000600008008A
:1026B000300060000000022003FC1E20022003FC0A
:1026C0001E200220000000000E1811043FFF10849D
:1026D0000C78000000000F0010840F3800C007784D
:1026E00018840078000000780F8410C411240E981C
:1026F00000E400840008080068007000000000008A
:1027000000000000000000000000000007E01818B2
:10271000200440020000000040022004181807E0D6
:102720000000000000000240024001800FF0018024
:102730000240024000000080008000800FF800800E
:102740000080008000000001000D000E000000006D
:102750000000000000000000008000800080008079
:102760000080008000800000000C000C00000000D1
:10277000000000000000000000060018006001805A
:10278000060018002000000007F0080810041004DC
:10279000080807F000000000080408041FFC0004FB
:1027A00000040000000000000E0C1014102410445F
:1027B00011840E0C000000000C1810041104110408
:1027C00012880C700000000000E00320042408249C
:1027D0001FFC0024000000001F9810841104110445
:1027E000108810700000000007F008881104110420
:1027F00018880070000000001C00100010FC13007E
:102800001C001000000000000E38114410841084D9
:1028100011440E38000000000700088C10441044DA
:10282000088807F00000000000000000030C030C03
:102830000000000000000000000000010106000090
:102840000000000000000000008001400220041091
:1028500008081004000002200220022002200220AA
:1028600002200220000000001004080804100220CA
:1028700001400080000000000E001200100C106CDF
:1028800010800F00000003E00C1813E4142417C498
:10289000082807D000000004003C03C41C40074087
:1028A00000E4001C000410041FFC110411041104B6
:1028B0000E880070000003E00C18100410041004CF
:1028C00010081C10000010041FFC10041004100459
:1028D000080807F0000010041FFC1104110417C4BD
:1028E00010040818000010041FFC1104110017C088
:1028F00010000800000003E00C181004100410443D
:102900001C780040000010041FFC10840080008030
:1029100010841FFC10040000100410041FFC10049D
:1029200010040000000000030001100110011FFE50
:1029300010001000000010041FFC11040380146438
:10294000181C1004000010041FFC100400040004F4
:102950000004000C000010041FFC1F0000FC1F00FE
:102960001FFC1004000010041FFC0C04030000E016
:1029700010181FFC100007F00808100410041004C1
:10298000080807F0000010041FFC1084108010805D
:1029900010800F00000007F0081810241024101CED
:1029A000080A07F2000010041FFC1104110011C0F6
:1029B00011300E0C000400000E1C11041084108451
:1029C00010441C3800001800100010041FFC1004F4
:1029D00010001800000010001FF81004000400048C
:1029E00010041FF8100010001E0011E0001C007001
:1029F00013801C0010001FC0103C00E01F0000E00E
:102A0000103C1FC000001004180C163401C001C097
:102A10001634180C100410001C00130400FC1304DE
:102A20001C00100000000804101C10641084130423
:102A30001C04101800000000000000007FFE40028F
:102A4000400240020000000030000C0003800060E3
:102A5000001C0003000000004002400240027FFE14
:102A600000000000000000000000200040004000C6
:102A700040002000000000010001000100010001F1
:102A800000010001000100004000400020000000A3
:102A900000000000000000000098012401440144EF
:102AA000014400FC000410001FFC00880104010424
:102AB000008800700000000000700088010401041C
:102AC0000104008800000000007000880104010477
:102AD00011081FFC0004000000F8014401440144F7
:102AE000014400C800000000010401040FFC1104AF
:102AF000110411001800000000D601290129012944
:102B000001C90106000010041FFC0084010001003F
:102B1000010400FC000400000104190419FC000475
:102B20000004000000000000000300010101190181
:102B300019FE0000000010041FFC0024004001B436
:102B4000010C010400000000100410041FFC00042C
:102B5000000400000000010401FC0104010001FC6C
:102B60000104010000FC010401FC008401000100DB
:102B7000010400FC0004000000F801040104010449
:102B8000010400F80000010101FF008501040104B7
:102B9000008800700000000000700088010401043B
:102BA000010501FF00010104010401FC008401048E
:102BB000010001800000000000CC01240124012458
:102BC00001240198000000000100010007F8010441
:102BD000010400000000010001F8000400040004EA
:102BE000010801FC0004010001800170000C0010CC
:102BF00001600180010001F0010C003001C00030D3
:102C0000010C01F0010000000104018C007401704E
:102C1000018C01040000010101810171000E001806
:102C200001600180010000000184010C01340144B5
:102C30000184010C00000000000000000000010001
:102C40003EFC400240020000000000000000FFFFC8
:102C50000000000000000000400240023EFC0100B5
:102C600000000000000000006000800080004000C4
:102C700040002000200000000000000000000000D4
:102C80000000000000000000000000000000000044
:102C90000000000000000000000000000000000034
:102CA0000000000000000000000F80380FFE380F09
:102CB000803800000000000000000000000000005C
:102CC000000000000100000600000C0000380000B9
:102CD0003100000600000C00003800003000000049
:102CE00000000000000061800067F807F9800061C3
:102CF000800061800061800061800067F807F980D2
:102D000000618000000000000000000001C0E0033E
:102D1000E0F00630080418081FFFFE040E080787BD
:102D2000F00381E000000000000001F000060C004C
:102D3000040408060C7001F9C0000E00003BE0001E
:102D4000EC18070808040C180003E000000000015C
:102D5000E00007F003F818041C0804170807E1D086
:102D600003C0E00023B0003C080020080000100071
:102D700000000000000100003100003200001C00D3
:102D80000000000000000000000000000000000043
:102D90000000000000000000000000000000000033
:102DA0000000000000007F0001FFC00780F00C0061
:102DB00018100004200002000000000000200002A3
:102DC0001000040C00180780F001FFC0007F000015
:102DD00000000000000000000000000000000000F3
:102DE00000004200006600006600003C0000180081
:102DF00003FFC0001800003C0000660000660000F1
:102E00004200000000000800000800000800000860
:102E10000000080001FFC0000800000800000800D2
:102E20000008000008000000000000010000310060
:102E3000003200001C000000000000000000000044
:102E4000000000000000000000000000000008007A
:102E5000000800000800000800000800000800004A
:102E60000800000800000800000800000000000042
:102E700000000000000038000038000038000000AA
:102E80000000000000000000000000000000000042
:102E9000000000000000000600001C00007000019F
:102EA00080000E0000380000C0000700001C000079
:102EB000300000000000000000007F8001FFE00300
:102EC000807006001804000804000806001803803B
:102ED0007001FFE0007F80000000000000000000A3
:102EE00001000801000801000803FFF807FFF800CF
:102EF00000080000080000080000000000000000BA
:102F00000001C03802C058040098040118040218D7
:102F1000040418061C1803F81801E0F8000000006B
:102F2000000000000001C0E003C0F0040008040835
:102F30000804080806180803F41801E7F00001E087
:102F4000000000000000000000000300000D000071
:102F5000110000610000810803010807FFF80FFF5E
:102F6000F80001080001080000000000000000E077
:102F700007FCD00608080610080610080610080608
:102F80001838060FF00607C000000000000000001F
:102F900000003F8001FFE00384300208180410089D
:102FA000041008041008071810030FF00007C000F1
:102FB000000000000000000003C000070000060041
:102FC000000600F80607F806180006E000070000F3
:102FD00006000000000000000001E1E003F7F00639
:102FE0003410041808041808040C08040C08061609
:102FF0001803F3F001C1E000000000000000F80039
:1030000003FC300306380402080402080402080422
:1030100004100308F001FFC0007F00000000000062
:1030200000000000000000000000000000007038F8
:103030000070380070380000000000000000000040
:103040000000000000000000000000000000000080
:103050000000301A00301C000000000000000000DA
:103060000000000000000000000000000008000058
:103070001400002200004100008080010040020096
:1030800020040010080008000000000000002100DB
:10309000002100002100002100002100002100008B
:1030A000210000210000210000210000000000009C
:1030B0000000000008000804001002002001004089
:1030C0000080800041000022000014000008000081
:1030D000000000000003C00004C00004000008005D
:1030E00038080F380808380810000C300007E000D6
:1030F00003C000000000000000003F8000FFE0036C
:103100008070020F1006708804C088048308047F52
:103110008802C09003012000FE4000000800001853
:103120000001F8003E0801C20007020007E20000AB
:10313000FE00001FC80001F800003800000804006D
:103140000807FFF807FFF80408080408080408083F
:1031500004080806180803F41801E7F00001E0006D
:103160000000000000003F8001FFE00380700200CB
:1031700018040008040008040008040010060020D9
:103180000780C000000004000807FFF807FFF804EC
:10319000000804000804000804001802001003805E
:1031A0007001FFE0007F8000000004000807FFF8C6
:1031B00007FFF804080804080804080804080804BD
:1031C0003E0804000806001801006000000004002A
:1031D0000807FFF807FFF8040808040800040800BF
:1031E000040800043E000600000600000180000004
:1031F0000000000000003F8001FFE0038070060037
:10320000180400080402080402080203F00783F00F
:1032100000020000020004000807FFF807FFF8049E
:103220000808000800000800000800000800040862
:103230000807FFF807FFF80400080000000000007E
:1032400004000804000804000807FFF807FFF8045A
:10325000000804000804000800000000000000004E
:103260000000000600000700000104000104000146
:1032700004000307FFFE07FFFC0400000400000435
:10328000000004000807FFF807FFF8040C08001806
:1032900000003E0004C7800503C80600F80400389B
:1032A00004001800000804000807FFF807FFF804EE
:1032B00000080000080000080000080000080000E6
:1032C0000800001800006000000004000807FFF874
:1032D00007800807FC00007FC00003F80007C0005B
:1032E000780007800807FFF807FFF80400080400CB
:1032F0000807FFF807000803C00000E000003800DE
:10330000001E000007000001C00400F007FFF804E1
:103310000000000000007F8001FFE00380700600D5
:103320001804000804000806001803003001FFE03C
:10333000007F8000000004000807FFF807FFF80482
:103340000408040400040400040400040400060C3F
:103350000003F80001F000000000000000007F8082
:1033600001FFE00380700600880400880400C8069E
:10337000003C03003E01FFE6007F840000000400E3
:103380000807FFF807FFF8040808040800040C0009
:10339000040F00040BC00610F003F03801E0080031
:1033A000000800000001E0F803F0300630100418B7
:1033B00008041808040C08040C080206180207F098
:1033C0000781E00000000180000600000400000406
:1033D000000004000807FFF807FFF80400080400D5
:1033E0000004000006000001800004000007FFE068
:1033F00007FFF004001800000800000800000800A3
:10340000000800000804001007FFE00400000400AA
:103410000006000007E00007FE00041FE00001F8BE
:103420000000380001E0043E0007C0000600000470
:10343000000004000007E00007FFC0041FF80007B9
:10344000C007F80007FF80043FF80007C004F80039
:103450000700000400000000000400080600180730
:10346000C07805F1C8003E00001F800463E80780B3
:10347000F806001804000800000004000006000020
:1034800007800007E008047C08001FF80007F80028
:10349000180804E00807000006000004000000000F
:1034A000000100080600380400F80403E8040F08CF
:1034B000047C0805F00807C0080700180400600035
:1034C00000000000000000000000000000000000FC
:1034D000003FFFFE20000220000220000220000228
:1034E00020000200000000000000000008000007AB
:1034F000000000C0000038000006000001C000000D
:103500003000000E0000010000000000000000007C
:103510002000022000022000022000022000023FC2
:10352000FFFE00000000000000000000000000009E
:103530000000000000000008000010000030000043
:103540002000003000001000000800000000000013
:103550000000000001000001000001000001000067
:103560000100000100000100000100000100000155
:103570000000010000010000000000000000002029
:1035800000002000001000001000000000000000FB
:10359000000000000000000000000000000000F03B
:1035A0000019F8001B180022080026080024080053
:1035B0002410003FF8001FF8000008000018000069
:1035C0000004000007FFF80FFFF0001818001008B3
:1035D000002008002008003018001FF0000FC00075
:1035E00000000000000007C0001FF000183000209D
:1035F00008002008002008003C08001C10000060A3
:103600000000000000000000000007C0001FF000E4
:10361000381800200800200800200804101007FFB8
:10362000F80FFFF000001000000000000000000094
:103630000007C0001FF0001230002218002208000E
:103640002208003208001E10000E200000000000BA
:103650000000200000200800200801FFF803FFF808
:1036600006200804200804200807200003000000AA
:10367000000000000000000E000E6E001FF300317D
:10368000B10020B10020B1003191001F13002E1EA7
:1036900000200E00300000000004000807FFF80FB3
:1036A000FFF8001008002000002000002008003F64
:1036B000F8001FF8000008000000000000000000F3
:1036C000002008002008002008063FF8063FF80008
:1036D00000080000080000080000000000000000D2
:1036E0000000000000000300000300200100200192
:1036F000002003063FFE063FFC0000000000000023
:10370000000000000004000807FFF80FFFF80001A8
:1037100088000300002FC00038F80020380020087F
:103720000000080000000000000000000400080481
:10373000000804000807FFF80FFFF8000008000069
:1037400008000008000000000000002008003FF80A
:10375000003FF8001008002000003FF8003FF8008C
:103760001008002000003FF8003FF80000080000AB
:1037700000002008003FF8003FF80010080010008B
:10378000002000002008003FF8001FF8000008009B
:1037900000000000000007C0000FF00018300030EB
:1037A00008002008002008003008001830000FF042
:1037B0000007C0000000000000002001003FFF00E3
:1037C0003FFF0010110020090020080020080030F1
:1037D00038001FF0000FC00000000000000007C00C
:1037E000001FF00038180020080020080020090001
:1037F0001011001FFF003FFF00000100000000202B
:1038000008002008002008003FF8003FF8000808E2
:1038100000100800200800200000300000300000E8
:103820000000000000000000000C78001E180033AB
:10383000080023080021080021880021980030F0AA
:1038400000386000000000000000200000200000A0
:10385000200000FFF003FFF80020080020080020EF
:103860000800003000000000000000000000200000
:10387000003FF0007FF8000018000008000008007A
:103880002010003FF8007FF0000010000000000052
:1038900000002000003000003C00003F800023F0CA
:1038A000000078000070002380003C000030000021
:1038B0002000002000003C00003FE00023F8000052
:1038C000E0002700003E00003FE00021F80001E09A
:1038D000003E00002000000000002008002008003A
:1038E0003838003E680027800003C8002CF80038F4
:1038F0003800201800200800000000000000200010
:10390000003003003C01003F830023EC0000700006
:103910002380003C00002000002000000000000088
:10392000000000000038080020380020F80023E8DC
:10393000002F88003E0800380800201800007000A2
:103940000000000000000000000000000000000077
:10395000000008000014001FF7FC300006200002E1
:103960000000000000000000000000000000000057
:103970000000000000000000FFFFFF00000000004A
:103980000000000000000000000000000000000037
:103990002000023000061FF7FC00140000080000A1
:1039A0000000000000000000000000000000000017
:1039B00000180000600000400000400000200000EF
:1039C0001000000800000400000400000C000010BB
:1039D00000000000F439000800000020781C0000FE
:1039E00028010008A03D0008781C0020D00B000032
:1039F0008401000811100A03050911FF118905C38C
:103A000012E012F072F8073D4428FF11AA44700B2F
:103A10008301384482929274018328087C44FF0118
:103A20007D7D7D044905647D01FF9A0102818A0143
:103A30000B013669419949FA0101011D38083F3FE0
:103A40000303F31311011E01F1116181312D816115
:103A500011F1393B4141072C01C1211EAB21C11499
:103A6000390139360738D33303033F3F23E0E06A97
:103A70007FA81A7FBF4C0618060A213640407F40B7
:103A8000401C1F204001AB201F14113A600E6C3007
:103A90000C034601361C0707060178090404048458
:103AA00044444484071C0484C405790E09110A792E
:103AB000112940034107072610181412112E0F1068
:103AC00010100F0F331F1026081012120D22186B42
:103AD0000D120A5929590701605A8001013D200839
:103AE0007F030C300C037F2538545458257C040484
:103AF0007805223C40407C17FFAAAAAA28080A2C75
:103B0000FF681E2649494932101D020408100F1093
:103B10000A03050911FF118905C312E012F072F8BA
:103B2000073D4428FF11AA44700B83013844829258
:103B3000927401831E7C44FF017D01990559BB9A53
:103B40000102818A010B013669419949FA0101019B
:103B5000204BF808011135F818608035806018F89E
:103B60002B202006312BE0101EAB10E014613937FA
:103B7000043E8868186A7FA71A7FBE4C0618060A9A
:103B8000114640407F40401C1F204001AB201F14C5
:103B90001162603A602F01441E40202020C0ED19C0
:103BA0000729EA2A4005115A600E89187929590710
:103BB0000149260C0A0A090C360F0808080F2C08C0
:103BC0000F08151D0809090E0719181C09090918FD
:103BD000190A5929590701605A8001013D20087FBF
:103BE000030C300C037F2538545458257C0404788A
:103BF00005223C40407C17FFAAAAAA28080A2CFFED
:103C0000681E2649494932101D020408100F81849C
:103C1000A24A04680901020304060708090C691096
:103C20002602040608012A240137FC22222223222C
:103C30002A02013C42827F08130202200F4044C442
:103C4000444444401010FF101010F0200F103C139B
:103C50001014B840300E014080403F101088681F9B
:103C6000C80810C85452D1129408D0101609190966
:103C7000FF0515FF1292FF6B5F80907501E21CE05B
:103C800037804020100C0319C014408080180E109B
:103C900010D0FF9014E4AFA4A4A4AFE4B3130403C2
:103CA00012FF280A894B2A1A0E1A2A4B88202A90BA
:103CB000013980241116101D2060203F8B194045CA
:103CC000102040F83809F8888C8A898888880D3156
:103CD0001AFFB1290152FF1AFCDD111C04C45FC890
:103CE0001B5FC4611C3F1111B719243A7F2209419F
:103CF0008001204BC080014BFC84080336C0C03CCF
:103D0000FF7F40014AFF07043E40FF7F034A7F7068
:103D10000373FCF86CFFFE02018BFFFF0B026803CC
:103D20006C1F1F04017BFFFF0B02741F038C7F3F7E
:103D300007FFF8F8F0F0702001E60214801AFF0186
:103D400009122C09132D01FF01C0EDFFFFFE060132
:103D50001AFF01F915391603FF070201D10C12FFF2
:103D6000FFFF1409101509151601FF01C1EDFFFF32
:103D7000FF18011914091015391601FF01D2041298
:103D80000201011AFF01011209122A01FF01D71ACB
:103D9000FF0101FF01FD05FF1F1F0F0F01EF0000D5
:04000005080000ED02
:00000001FF
