:020000040800F2
:1000000078070020890100081D0700083504000852
:100010001907000809030008370C00080000000059
:100020000000000000000000000000009D08000823
:100030000D03000800000000A5070008B109000832
:10004000A3010008A3010008A3010008A301000800
:10005000A3010008A3010008A3010008A3010008F0
:10006000A3010008A3010008A3010008A3010008E0
:10007000A3010008A3010008A3010008A3010008D0
:10008000A3010008A3010008A3010008A3010008C0
:10009000A3010008A3010008A3010008A3010008B0
:1000A000A3010008A3010008A3010008A3010008A0
:1000B000A3010008A3010008A3010008A301000890
:1000C000A3010008A3010008A3010008A301000880
:1000D000A3010008150A0008A3010008A3010008F5
:1000E000A3010008A3010008A301000800F002F822
:1000F00000F03AF80AA090E8000C82448344AAF188
:100100000107DA4501D100F02FF8AFF2090EBAE885
:100110000F0013F0010F18BFFB1A43F0010318473B
:10012000DC0F0000FC0F0000103A24BF78C878C133
:10013000FAD8520724BF30C830C144BF04680C60ED
:10014000704700000023002400250026103A28BF35
:1001500078C1FBD8520728BF30C148BF0B60704739
:100160001FB51FBD10B510BD00F06EF81146FFF7AA
:10017000F7FF00F00DFF00F0A0F803B4FFF7F2FF67
:1001800003BC00F05AFD00000948804709480047B9
:10019000FEE7FEE7FEE7FEE7FEE7FEE7FEE7FEE737
:1001A000FEE7FEE704480549054A064B7047000094
:1001B000B5090008ED00000878010020780700204C
:1001C0007803002078030020704700000FB4044932
:1001D00010B503AA029800F009F810BC5DF814FBF2
:1001E0002C0000207047704770477047074B70B570
:1001F0000D467B4400F011F80446284600F020F834
:1002000010B14FF0FF3070BD204670BD270B0000CD
:1002100001694A1C02610878704700B58FB0CDE9CA
:1002200001310021059105497944CDE903101146BA
:10023000684600F02EF80FB000BD0000E5FFFFFF9C
:10024000007B00F080007047754600F03DF8AE4638
:1002500005006946534620F00700854618B020B5D2
:10026000FFF7A0FFBDE820404FF000064FF0000769
:100270004FF000084FF0000B21F00701AC46ACE84E
:10028000C009ACE8C009ACE8C009ACE8C0098D46BB
:1002900070472DE9F04106460024D6E90170F56863
:1002A0008046304603E04146B847641C3046A847C4
:1002B0000028F8D12046BDE8F0810446AFF3008065
:1002C0002046FFF75AFF0000004870471401002045
:1002D00008B50121082000F067FA4FF48070ADF8EE
:1002E000000010208DF8030003208DF802006946FD
:1002F000034800F00CF800200249086008BD000027
:10030000000C0140A081214200BFFEE770472DE9AB
:10031000F04102460025002600200023002400278B
:1003200091F803C00CF00F0591F803C00CF0100C0D
:10033000BCF1000F03D091F802C04CEA050591F81A
:1003400000C0BCF1000F31D0146800202BE04FF04A
:10035000010C0CFA00F3B1F800C00CEA03069E424F
:1003600020D183004FF00F0C0CFA03F7BC4305FAC1
:1003700003FC4CEA040491F803C0BCF1280F06D139
:100380004FF0010C0CFA00FCC2F814C00AE091F81E
:1003900003C0BCF1480F05D14FF0010C0CFA00FC72
:1003A000C2F810C0401C0828D1D31460B1F800C0B6
:1003B000BCF1FF0F34DD546800202EE000F1080C82
:1003C0004FF0010808FA0CF3B1F800C00CEA03067C
:1003D0009E4221D183004FF00F0C0CFA03F7BC436F
:1003E00005FA03FC4CEA040491F803C0BCF1280FA1
:1003F00005D100F1080C08FA0CF8C2F8148091F845
:1004000003C0BCF1480F07D100F1080C4FF0010800
:1004100008FA0CF8C2F81080401C0828CED35460AB
:10042000BDE8F0810146886880B27047416170473D
:100430000161704700BFFEE708B50121042000F00C
:10044000B3F90F20ADF8000010208DF803006946C5
:100450000648FFF75CFFF020ADF8000048208DF85B
:10046000030069460248FFF752FF08BD000801403B
:10047000000C014008B50121042000F095F94FF46B
:100480006750ADF8000010208DF8030003208DF8B0
:10049000020069460148FFF73AFF08BD0008014025
:1004A00010B500204B4908604B49C1F898014949F3
:1004B00018390860091D086046490839086046492E
:1004C000C1F8B0014FF4FA7000F0DCFB01204149A3
:1004D000086000203F491C390860091D0860091D9B
:1004E00008603C49083908603B49C1F8B0014FF445
:1004F000FA7000F0C7FB00203649086035491C3906
:100500000860091D0860091D086032490839086043
:1005100001203149C1F8B0014FF4FA7000F0B2FB8C
:1005200000202C4908602B491C390860091D08600F
:10053000091D086001202749083908600020264964
:10054000C1F8B0014FF4FA7000F09CFB0020214983
:10055000086020491C390860091D08600120091D38
:10056000086000201B49083908601B49C1F8B00128
:100570004FF4FA7000F086FB002016490860154918
:100580001C3908600120091D08600020091D086051
:100590001049083908601049C1F8B0014FF4FA70E9
:1005A00000F070FB00200B490860012009491C394C
:1005B00008600020091D0860091D08600549083908
:1005C00008600549C1F8B0014FF4FA7000F05AFB19
:1005D00010BD0000B40121420000214210B50020EE
:1005E0004B4908604B49C1F89801494918390860DE
:1005F000091D08604649083908604649C1F8B0013C
:100600004FF4FA7000F03EFB0020414908600120E1
:100610003F491C3908600020091D0860091D086059
:100620003B49083908603B49C1F8B0014FF4FA7002
:1006300000F028FB00203649086035491C39086065
:100640000120091D08600020091D08603049083993
:1006500008603049C1F8B0014FF4FA7000F012FBA5
:1006600000202B4908602A491C390860091D0860D0
:100670000120091D08600020254908390860254926
:10068000C1F8B0014FF4FA7000F0FCFA00202049E4
:1006900008601F491C390860091D0860091D0860B1
:1006A00001201B490839086000201A49C1F8B0012F
:1006B0004FF4FA7000F0E6FA00201549086014497A
:1006C0001C390860091D0860091D086010490839B7
:1006D000086001200F49C1F8B0014FF4FA7000F032
:1006E000D1FA01200A490860002009491C39086034
:1006F000091D0860091D0860054908390860054999
:10070000C1F8B0014FF4FA7000F0BCFA10BD00005F
:10071000B40121420000214200BFFEE77047000003
:1007200070B5002100230F22C47804B3154C24684F
:1007300004F4E064C4F5E064210AC1F10403CA4092
:10074000447804FA03F184781440214309010E4CE3
:100750000678A155047804F01F050124AC40057803
:100760006D11AD0005F1E025C5F8004109E0047800
:1007700004F01F050124AC40044D0678761145F8BD
:10078000264070BD0CED00E000E400E080E100E0F8
:1007900002490143024A1160704700000000FA0557
:1007A0000CED00E07047000029B1064A926902434F
:1007B000044B9A6104E0034A92698243014B9A61B7
:1007C000704700000010024030B5002100220024D4
:1007D00000232D4D6D6805F00C0121B1042905D0D1
:1007E000082923D105E0294D056022E0274D056049
:1007F0001FE0254D6D6805F47012234D6D6805F4FA
:100800008034022505EB92421CB9214D5543056009
:100810000BE01D4D6D6805F400351DB11C4D5543B1
:10082000056002E0194D5543056002E0174D056073
:1008300000BF00BF144D6D6805F0F0010909154DAA
:100840006B5C0568DD4045600F4D6D6805F4E06147
:10085000090A104D6B5C4568DD4085600A4D6D6886
:1008600005F46051C90A0B4D6B5C4568DD40C560FD
:10087000054D6D6805F44041890B074D6B5CC568FB
:10088000B5FBF3F5056130BD0010024000127A009F
:1008900000093D001400002024000020704710B51E
:1008A00000F002F810BD00000CB50020019000908F
:1008B0003348006840F480303149086000BF304858
:1008C000006800F4003000900198401C01900098EE
:1008D00018B90198B0F5A06FF1D12948006800F46B
:1008E000003010B10120009001E00020009000983D
:1008F000012843D12348006840F0100021490860D6
:100900000846006820F0030008600846006840F0D0
:10091000020008601A484068194948600846406863
:1009200048600846406840F4806048600846406877
:1009300020F47C1048600846406840F4E8104860A5
:100940000846006840F08070086000BF0C480068EE
:1009500000F000700028F9D00948406820F003003A
:10096000074948600846406840F00200486000BF00
:100970000348406800F00C000828F9D10CBD0000C5
:100980000010024000200240042808D14FF0E0216E
:10099000096941F004014FF0E022116107E04FF0D6
:1009A000E021096921F004014FF0E0221161704754
:1009B0007047000010B51348006840F0010011496D
:1009C000086008464068104908400E4948600846DB
:1009D00000680E4908400B4908600846006820F48A
:1009E000802008600846406820F4FE0048604FF40C
:1009F0001F008860FFF753FF4FF000600449086054
:100A000010BD0000001002400000FFF8FFFFF6FEDE
:100A100008ED00E010B540F225511D4800F04AF8FD
:100A200010B31B4800F002F9C4B21A48008800F461
:100A30000040C8B91748008800F4804060B10A2C13
:100A400003D000201349088020E01248008840F4B9
:100A500000401049088019E00D2C06D10D4800888F
:100A600040F480400B49088010E00A480088C0F339
:100A70000D0009490C5407480088401C05490880AE
:100A800008460088C72801DD0020088010BD00004E
:100A900000380140300000204C00002021B1828944
:100AA00042F40052828104E082894DF6FF731A40BD
:100AB0008281704770B50246002400230025002083
:100AC00040F66A16B14200D100BFC1F3421501F0F1
:100AD0001F03012606FA03F3012D02D19689334044
:100AE00006E0022D02D1168A334001E0968A334097
:100AF0000C12012606FA04F41688344013B10CB126
:100B0000012000E0002070BDF0B50346002400265F
:100B10000025002040F66A17B94200D100BF1846F0
:100B2000C1F3421401F01F06012707FA06F5012C54
:100B300001D10C3004E0022C01D1103000E014305F
:100B40001AB107682F43076002E00768AF430760E8
:100B5000F0BD00002DE9F04786B005460E460024A2
:100B6000A24600BFA1460027B08900B100BF2F46B2
:100B70002C8A4CF6FF700440F08804432C82AC8928
:100B80004EF6F3100440B088318908437189084358
:100B90000443AC81AC8A4FF6FF400440B089044363
:100BA000AC8201A8FFF710FE1F48874202D1DDF892
:100BB00010A001E0DDF80CA0A88900F4004040B1CD
:100BC0000AEBCA0000EB0A1031684900B0FBF1F8EB
:100BD00007E00AEBCA0000EB0A1031688900B0FB9D
:100BE000F1F86420B8FBF0F004012009642101FB56
:100BF0001089A88900F4004040B1322000EBC90000
:100C0000B0FBF1F000F00700044308E0322000EBF5
:100C100009106421B0FBF1F000F00F0004432C81B7
:100C200006B0BDE8F0870000003801400146888822
:100C3000C0F30800704700BFFEE7014600BF7047E1
:100C400010B56FF00400FFF79FFE0A4800680A49DC
:100C5000B0FBF1F0094908700846007800EB40014C
:100C6000C1EBC0104FF6FF7101EAC00004490880D3
:100C700010BD00000000002000127A0028000020B3
:100C80002A0000200146114A12884A434FF0E0230F
:100C90005A6100229A611A46126942F001021A61F1
:100CA00000BF4FF0E022106900F001021AB100F419
:100CB0008032002AF5D04FF0E022126922F00102C2
:100CC0004FF0E0231A6100229A6170472A00002049
:100CD0000146114A12784A434FF0E0235A6100223C
:100CE0009A611A46126942F001021A6100BF4FF080
:100CF000E022106900F001021AB100F48032002AEB
:100D0000F5D04FF0E022126922F001024FF0E0230B
:100D10001A6100229A6170472800002000BF054A2E
:100D2000128802F04002002AF9D0C2B2014B1B1D0A
:100D30001A8070470038014070B500260025002455
:100D40000F219148FFF772FB0A20FFF7C1FF8E4881
:100D5000FFF768FBC5B20120FFF7BAFF8B480078A8
:100D6000002876D0F02DFCD00A20FFF78BFF002062
:100D7000864908708448FFF755FBC5B2F02D69D04D
:100D8000702D68D0B02D7ED0D02D3CD0E02D77D105
:100D90000F217D48FFF74CFB01217B48FFF746FB05
:100DA0000A20FFF795FF7848FFF73CFBC4B2EE2C12
:100DB00001D1012626E00F217348FFF739FB0221FC
:100DC0007148FFF733FB0120FFF782FF6E48FFF702
:100DD00029FBC4B2ED2C01D1042613E00F216A488F
:100DE000FFF726FB04216848FFF720FB0120FFF7EF
:100DF0006FFF6548FFF716FBC4B2EB2C01D1072645
:100E000000E00D26B7E00F215F48FFF711FB01213D
:100E10005D48FFF70BFB0120FFF75AFF5A48FFF729
:100E200001FBC4B2DE2C01D102262BE00F21564873
:100E3000FFF7FEFA02215448FFF7F8FA0120FFF706
:100E400047FF5148FFF7EEFAC4B2DD2C05D1052665
:100E500018E091E095E051E015E00F214A48FFF7D6
:100E6000E7FA04214848FFF7E1FA0120FFF730FFD5
:100E70004548FFF7D7FAC4B2DB2C02D1082601E0BF
:100E800077E00E2677E00F213F48FFF7D1FA0121E6
:100E90003D48FFF7CBFA0120FFF71AFF3A48FFF76A
:100EA000C1FAC4B2BE2C01D1032626E00F21364878
:100EB000FFF7BEFA02213448FFF7B8FA0120FFF726
:100EC00007FF3148FFF7AEFAC4B2BD2C01D10626A8
:100ED00013E00F212C48FFF7ABFA04212A48FFF753
:100EE000A5FA0120FFF7F4FE2748FFF79BFAC4B2EA
:100EF000BB2C01D1092600E00F263CE00F2122483F
:100F0000FFF796FA01212048FFF790FA0120FFF73A
:100F1000DFFE1D48FFF786FAC4B27E2C01D164269D
:100F200026E00F211848FFF783FA02211648FFF741
:100F30007DFA0120FFF7CCFE1348FFF773FAC4B225
:100F40007D2C01D1E60013E00F210F48FFF770FA66
:100F500004210D48FFF76AFA0120FFF7B9FE0A489D
:100F6000FFF760FAC4B27B2C01D10C2600E01026FA
:100F700001E0002070BD04E0F02D02D10120034902
:100F800008703046F6E700000008014049000020E4
:100F9000FFF710FDFFF754FEFFF76CFAFFF798F923
:100FA000FFF74AFA4FF4A060FFF7F2FB4FF4E1308D
:100FB00000F054F841E0FFF7BFFE0A283CD2DFE81A
:100FC00000F03B05080B14272B2F3337FFF768FA87
:100FD00032E0FFF703FB2FE01848006808B9012052
:100FE00000E000201549086026E00120144908604F
:100FF00000201449C1F89801114910390860091DF1
:1010000008600F49091D08600E49C1F8B40113E0DA
:101010000DA0FFF7DBF80FE00CA0FFF7D7F80BE00F
:101020000BA0FFF7D3F807E00AA0FFF7CFF803E023
:1010300009A0FFF7CBF800BF00BFBCE7A0812142A9
:10104000AC01214200002142350D0A00360D0A0094
:10105000370D0A00380D0A00390D0A0010B586B0A8
:101060000446012144F20400FFF79EFB4FF4007098
:10107000ADF8140003208DF8160018208DF8170025
:1010800005A91C48FFF743F94FF48060ADF8140040
:1010900004208DF8170005A91648FFF738F9252018
:1010A0008DF8000003208DF801008DF8020001206A
:1010B0008DF803006846FFF733FB01940020ADF87C
:1010C0000800ADF80A00ADF80C00ADF810000C20D7
:1010D000ADF80E0001A90848FFF73CFD012240F2DF
:1010E00025510548FFF710FD01210348FFF7D6FC05
:1010F00006B010BD00080140003801401C11000876
:10110000000000204C0000002801000868110008C1
:101110004C0000202C0700004401000800A24A04F3
:101120000000000000000000010203040607080997
:10113000000000000102030401020304060708097D
:10114000020406080000000000000000000000008B
:10115000000000000000000000000000000000008F
:08116000000000000001000086
:04000005080000ED02
:00000001FF
