:020000040800F2
:1000000060070020CD010008C9040008E9030008CA
:10001000ED030008CD020008931100080000000065
:100020000000000000000000000000005D07000864
:10003000D102000800000000A90500089908000886
:10004000E7010008E7010008E7010008E7010008F0
:10005000E7010008E7010008E7010008E7010008E0
:10006000E7010008E7010008E7010008E7010008D0
:10007000E7010008E7010008E7010008E7010008C0
:10008000E7010008E7010008E7010008E7010008B0
:10009000E7010008E7010008E7010008E7010008A0
:1000A000E7010008E7010008E7010008E701000890
:1000B000E7010008FD080008250A0008E70100081C
:1000C000E7010008E7010008E7010008E701000870
:1000D000E7010008710F0008E7010008E7010008C8
:1000E000E7010008E7010008E7010008E701000850
:1000F000E7010008E7010008E7010008E701000840
:10010000E7010008E7010008E7010008E70100082F
:10011000E7010008E7010008E7010008E70100081F
:10012000E7010008E7010008E7010008E70100080F
:1001300000F002F800F03AF80AA090E8000C8244BF
:100140008344AAF10107DA4501D100F02FF8AFF29C
:10015000090EBAE80F0013F0010F18BFFB1A43F0A5
:10016000010318471012000030120000103A24BF9B
:1001700078C878C1FAD8520724BF30C830C144BF0C
:1001800004680C607047000000230024002500264E
:10019000103A28BF78C1FBD8520728BF30C148BFEA
:1001A0000B6070471FB51FBD10B510BD00F033F8D0
:1001B0001146FFF7F7FF01F04DF800F051F803B4D6
:1001C000FFF7F2FF03BC00F0E6FF0000094880479C
:1001D00009480047FEE7FEE7FEE7FEE7FEE7FEE729
:1001E000FEE7FEE7FEE7FEE704480549054A064B41
:1001F000704700009D0800083101000860010020E0
:1002000060070020600300206003002070477047F3
:10021000704770477047754600F028F8AE460500F5
:100220006946534620F00700854618B020B5FFF711
:10023000DBFFBDE820404FF000064FF000074FF015
:1002400000084FF0000B21F00701AC46ACE8C009F4
:10025000ACE8C009ACE8C009ACE8C0098D467047FD
:100260000446AFF300802046FFF7A9FF004870471F
:10027000FC00002010B540F6B8301149088041F26A
:100280008830104908800A20091F08804FF47A70CE
:100290000B49091F088000200B49087008E04FF443
:1002A0007A7000F09DFF08480078401C06490870ED
:1002B000054800780A28F2DB00F0C6FA10BD0000FD
:1002C0003C040040380800403200002000BFFEE738
:1002D00070472DE9F041024600250026002000234A
:1002E0000024002791F803C00CF00F0591F803C01B
:1002F0000CF0100CBCF1000F03D091F802C04CEAD6
:10030000050591F800C0BCF1000F31D01468002041
:100310002BE04FF0010C0CFA00F3B1F800C00CEA2E
:1003200003069E4220D183004FF00F0C0CFA03F716
:10033000BC4305FA03FC4CEA040491F803C0BCF189
:10034000280F06D14FF0010C0CFA00FCC2F814C0C3
:100350000AE091F803C0BCF1480F05D14FF0010C41
:100360000CFA00FCC2F810C0401C0828D1D314605D
:10037000B1F800C0BCF1FF0F34DD546800202EE05E
:1003800000F1080C4FF0010808FA0CF3B1F800C0B6
:100390000CEA03069E4221D183004FF00F0C0CFAA9
:1003A00003F7BC4305FA03FC4CEA040491F803C0CC
:1003B000BCF1280F05D100F1080C08FA0CF8C2F8BE
:1003C000148091F803C0BCF1480F07D100F1080C6C
:1003D0004FF0010808FA0CF8C2F81080401C0828F9
:1003E000CED35460BDE8F08100BFFEE700BFFEE75A
:1003F00000200349086001200249C1F8AC017047A0
:10040000A88121420080214200200349086003495D
:10041000C1F8AC0170470000A88121420080214250
:1004200001200349086000200249C1F8AC0170476F
:10043000A881214200802142002003490860012058
:100440000249C1F8B8017047BC01234200002342B1
:1004500001200349086000200249C1F8B801704733
:10046000BC012342000023420020034908600349E5
:10047000C1F8B80170470000BC01234200002342CC
:1004800000200349086001200249C1F8800170473B
:1004900084012342000023420020034908600349ED
:1004A000C1F880017047000084012342000023420C
:1004B00001200349086000200249C1F8800170470B
:1004C00084012342000023427047000070B50021E0
:1004D00000230F22C47804B3154C246804F4E064AC
:1004E000C4F5E064210AC1F10403CA40447804FA67
:1004F00003F184781440214309010E4C0678A1557C
:10050000047804F01F050124AC4005786D11AD009E
:1005100005F1E025C5F8004109E0047804F01F0565
:100520000124AC40044D0678761145F8264070BD94
:100530000CED00E000E400E080E100E0024901434E
:10054000024A1160704700000000FA050CED00E05F
:1005500010B540F648501149088040F6B8301049AF
:10056000088041F288300D49091D08800C49091D99
:10057000088000200B49087008E04FF47A7000F002
:100580002FFE08480078401C06490870054800788E
:100590000A28F2DB00F058F910BD000038040040D2
:1005A00034080040320000207047000010B54FF4BE
:1005B0007A6023490880801000F012FE4FF47A70B0
:1005C0001F49088000201F49087008E04FF47A7026
:1005D00000F006FE1B480078401C1A4908701948B4
:1005E00000780328F2DBFFF74BFF00201549087065
:1005F00008E040F6B83000F0F3FD12480078401CE7
:10060000104908700F4800780228F2DBFFF750FF0E
:1006100000200C49087008E040F6B83000F0E0FD1A
:1006200008480078401C07490870064800780228EE
:10063000F2DBFFF731FF4FF47A600149088010BD0B
:10064000340400403200002029B1064AD269024336
:10065000044BDA6104E0034AD2698243014BDA6158
:10066000704700000010024029B1064A9269024317
:10067000044B9A6104E0034A92698243014B9A61F8
:10068000704700000010024030B500210022002415
:1006900000232D4D6D6805F00C0121B1042905D012
:1006A000082923D105E0294D056022E0274D05608A
:1006B0001FE0254D6D6805F47012234D6D6805F43B
:1006C0008034022505EB92421CB9214D554305604B
:1006D0000BE01D4D6D6805F400351DB11C4D5543F3
:1006E000056002E0194D5543056002E0174D0560B5
:1006F00000BF00BF144D6D6805F0F0010909154DEC
:100700006B5C0568DD4045600F4D6D6805F4E06188
:10071000090A104D6B5C4568DD4085600A4D6D68C7
:1007200005F46051C90A0B4D6B5C4568DD40C5603E
:10073000054D6D6805F44041890B074D6B5CC5683C
:10074000B5FBF3F5056130BD0010024000127A00E0
:1007500000093D001E0000202E000020704710B54B
:1007600000F002F810BD00000CB5002001900090D0
:100770003348006840F480303149086000BF304899
:10078000006800F4003000900198401C019000982F
:1007900018B90198B0F5A06FF1D12948006800F4AC
:1007A000003010B10120009001E00020009000987E
:1007B000012843D12348006840F010002149086017
:1007C0000846006820F0030008600846006840F012
:1007D000020008601A4840681949486008464068A5
:1007E00048600846406840F48060486008464068B9
:1007F00020F47C1048600846406840F4E8104860E7
:100800000846006840F08070086000BF0C4800682F
:1008100000F000700028F9D00948406820F003007B
:10082000074948600846406840F00200486000BF41
:100830000348406800F00C000828F9D10CBD000006
:1008400000100240002002400A20074908804FF4AF
:100850007A700649088041F28830091D08800249F3
:10086000091D08807047000034080040380400402B
:10087000042808D14FF0E021096941F004014FF04C
:10088000E022116107E04FF0E021096921F0040145
:100890004FF0E022116170477047000010B5134817
:1008A000006840F00100114908600846406810499E
:1008B00008400E494860084600680E4908400B4948
:1008C00008600846006820F48020086008464068F8
:1008D00020F4FE0048604FF41F008860FFF73FFFE0
:1008E0004FF000600449086010BD00000010024095
:1008F0000000FFF8FFFFF6FE08ED00E010B5012153
:10090000044800F0F6F818B10121024800F0E2F8BE
:1009100010BD00000004004030B589B005460C460B
:1009200001210220FFF790FE01214D20FFF79CFEE0
:10093000C020ADF8200018208DF8230003208DF88A
:10094000220008A93348FFF7C4FC4FF44060ADF81B
:10095000200010208DF8230003208DF8220008A924
:100960002D48FFF7B6FC4CF20300ADF82000102034
:100970008DF8230003208DF8220008A92748FFF7EF
:10098000A8FC0320ADF8200018208DF823000320D8
:100990008DF8220008A92048FFF79BFCADF81850FD
:1009A000ADF814400020ADF81A00ADF8160005A906
:1009B0001B4800F00BFA6020ADF804000120ADF8F0
:1009C00006000020ADF80C0001A9154800F0A2F8BF
:1009D0000821134800F0EAF801A9114800F0F0F8E6
:1009E00008210F4800F03EF901A90D4800F048F930
:1009F00008210B4800F094F901A9094800F09AF980
:100A00000821074800F0D4F90121054800F065F8F5
:100A100009B030BD00080140000C01400018014041
:100A20000004004010B50121044800F062F818B13C
:100A30000121024800F04EF810BD000000080040FF
:100A400030B589B005460C4601210420FFF7FCFDB6
:100A500001210920FFF708FE4FF47070ADF8200067
:100A600018208DF8230003208DF8220008A91748CC
:100A7000FFF72FFCADF81850ADF814400020ADF88A
:100A80001A00ADF8160005A9114800F09FF9602082
:100A9000ADF804000120ADF806000020ADF80C0010
:100AA00001A90B4800F036F80821094800F07EF84B
:100AB00001A9074800F084F80821054800F0D2F8A1
:100AC0000121034800F009F809B030BD000C0140D5
:100AD00000080040CA430282704721B1028842F0F8
:100AE0000102028004E002884FF6FE731A40028081
:100AF000704730B50246002000230024158A05EA1D
:100B00000103958905EA010413B10CB1012000E04D
:100B1000002030BD70B5002400220023058C4FF664
:100B2000FE7635400584028C8388048B4FF68F75E2
:100B30002C40B51E2C400D882C43751E2A400D8973
:100B40002A434D882A43144DA8420BD0134DA84286
:100B500008D0134DA84205D0124DA84202D0124D24
:100B6000A84213D14FF6F7752A404D892A434FF614
:100B7000FB752A408D882A434FF6FF652B404FF6C0
:100B8000FF552B408D892B43CD892B4383800483D4
:100B9000CD888586028470BD002C01400034014060
:100BA0000040014000440140004801400A46002145
:100BB000018B4FF6F7731940114301837047000012
:100BC00070B5002400220023058C4FF6EF763540E7
:100BD0000584028C8388048B48F6FF752C404FF601
:100BE000FF452C400D884FF6FF7606EA05252C437D
:100BF0004FF6DF752A400D8906EA05152A434D8810
:100C000006EA05152A43154DA84202D0144DA84204
:100C10001DD14FF67F752A404D894FF6FF7606EAC3
:100C200005152A434FF6BF752A408D8806EA05153B
:100C30002A434FF6FF352B404FF2FF752B408D892D
:100C400006EA85052B43CD8906EA85052B4383807B
:100C50000483CD880587028470BD0000002C01400C
:100C6000003401400A460021018B4FF2FF73194006
:100C70004FF6FF7303EA0223194301837047000014
:100C800070B5002400220023058C4FF6FF66354026
:100C90000584028C8388848B4FF68F752C404FF629
:100CA000FC752C400D882C434FF6FF552A400D89CA
:100CB0004FF6FF7606EA05252A434D8806EA052504
:100CC0002A43154DA84202D0144DA8421DD14FF21F
:100CD000FF752A404D894FF6FF7606EA05252A431F
:100CE0004FF6FF352A408D8806EA05252A434EF641
:100CF000FF752B404DF6FF752B408D8906EA0515D3
:100D00002B43CD8906EA05152B4383808483CD8848
:100D10008587028470BD0000002C01400034014032
:100D20000A460021818B4FF6F773194011438183E6
:100D30007047000070B5002200230024058C4EF699
:100D4000FF7635400584038C8488828B48F6FF75D6
:100D50002A404FF6FF452A400D884FF6FF7606EAF7
:100D600005252A434DF6FF752B400D8906EA05350A
:100D70002B434D8806EA05352B430B4DA84202D084
:100D80000A4DA84208D14BF6FF752C408D894FF6CD
:100D9000FF7606EA85152C4384808283CD88A0F8EF
:100DA0004050038470BD0000002C0140003401401D
:100DB0000A460021818B4FF2FF7319404FF6FF73F3
:100DC00003EA02231943818370470000002202884E
:100DD0001D4B98420ED01D4B98420BD0B0F1804F66
:100DE00008D01B4B984205D01A4B984202D01A4BA0
:100DF000984204D14FF68F731A404B881A43174B11
:100E0000984207D0164B984204D04FF6FF431A4041
:100E1000CB881A4302808B8883850B8803850A4B15
:100E200098420BD0094B984208D00E4B984205D0FF
:100E30000D4B984202D00D4B984201D10B7A03869C
:100E40000123838270470000002C014000340140E0
:100E50000004004000080040000C0040001000406A
:100E6000001400400040014000440140004801409F
:100E700010B5FFF7E1FA00203B49087008E041F2A5
:100E8000563000F0ADF938480078401C36490870FB
:100E9000354800780528F2DBFFF7E6FA4FF47A7060
:100EA00000F09EF94FF42F60304908804FF47A70BB
:100EB00000F096F94FF47A602C490880801000F019
:100EC0008FF9FFF7C5FA00202749087008E041F2C2
:100ED0006A3000F085F924480078401C22490870E7
:100EE000214800780528F2DBFFF7BEFA642000F005
:100EF00077F9FFF795FA00201B49087008E04FF4D6
:100F00007A7000F06DF918480078401C1649087096
:100F1000154800780E28F2DBFFF776FA4FF47A7066
:100F200000F05EF94FF42F60104908804FF47A709A
:100F300000F056F9FFF75CFA00200B49087008E052
:100F40004FF47A7000F04CF907480078401C0649CD
:100F50000870054800780E28F2DBFFF755FA642088
:100F600000F03EF910BD00003200002040040040B7
:100F700010B540F225511D4800F04AF810B31B4847
:100F800000F002F9C4B21A48008800F40040C8B961
:100F90001748008800F4804060B10A2C03D000207C
:100FA0001349088020E01248008840F400401049AE
:100FB000088019E00D2C06D10D48008840F48040CF
:100FC0000B49088010E00A480088C0F30D00094969
:100FD0000C5407480088401C0549088008460088D2
:100FE000C72801DD0020088010BD00000038014046
:100FF0001C0000203400002021B1828942F40052FC
:10100000828104E082894DF6FF731A408281704725
:1010100070B50246002400230025002040F66A1621
:10102000B14200D100BFC1F3421501F01F030126F8
:1010300006FA03F3012D02D19689334006E0022D12
:1010400002D1168A334001E0968A33400C12012601
:1010500006FA04F41688344013B10CB1012000E004
:10106000002070BDF0B503460024002600250020B6
:1010700040F66A17B94200D100BF1846C1F34214C6
:1010800001F01F06012707FA06F5012C01D10C30EB
:1010900004E0022C01D1103000E014301AB10768CE
:1010A0002F43076002E00768AF430760F0BD000010
:1010B0002DE9F04786B005460E460024A24600BF43
:1010C000A1460027B08900B100BF2F462C8A4CF6FC
:1010D000FF700440F08804432C82AC894EF6F31074
:1010E0000440B08831890843718908430443AC81C6
:1010F000AC8A4FF6FF400440B0890443AC8201A89B
:10110000FFF7C2FA1F48874202D1DDF810A001E0C4
:10111000DDF80CA0A88900F4004040B10AEBCA0039
:1011200000EB0A1031684900B0FBF1F807E00AEB68
:10113000CA0000EB0A1031688900B0FBF1F86420A6
:10114000B8FBF0F004012009642101FB1089A88993
:1011500000F4004040B1322000EBC900B0FBF1F0D8
:1011600000F00700044308E0322000EB091064217E
:10117000B0FBF1F000F00F0004432C8106B0BDE895
:10118000F08700000038014001468888C0F308005D
:10119000704700BFFEE7014600BF704710B56FF013
:1011A0000400FFF765FB0A4800680A49B0FBF1F04C
:1011B000094908700846007800EB4001C1EBC010F7
:1011C0004FF6FF7101EAC0000449088010BD00001D
:1011D0000000002000127A001400002016000020F9
:1011E0000146114A12884A434FF0E0235A61002217
:1011F0009A611A46126942F001021A6100BF4FF06B
:10120000E022106900F001021AB100F48032002AD5
:10121000F5D04FF0E022126922F001024FF0E023F6
:101220001A6100229A6170471600002008B501215A
:101230008020FFF719FA4FF48070ADF80000042009
:101240008DF8030069460248FFF743F808BD000027
:10125000001C014010B5FFF7A1FFFFF7E7FF4FF4B7
:10126000A060FFF76BF94FF4964000F033F82321AC
:1012700044F61F60FFF750FB232144F61F60FFF781
:10128000DFFBFFF7E1FA1CE010480068012806D1F7
:10129000FFF78CF94FF47A70FFF7A2FF12E0FFF727
:1012A000E7FD0B48FFF770FFC4B2312C02D1FFF706
:1012B0004FF902E0FEF7DEFF00BF00BF6420FFF73A
:1012C0008FFFE1E700BF002010BD00002081234216
:1012D0000038014010B586B00446012144F20400F4
:1012E000FFF7C2F94FF40070ADF8140003208DF839
:1012F000160018208DF8170005A91C48FEF7E9FF15
:101300004FF48060ADF8140004208DF8170005A993
:101310001648FEF7DEFF25208DF8000003208DF82B
:1013200001008DF8020001208DF803006846FFF7E8
:10133000CDF801940020ADF80800ADF80A00ADF832
:101340000C00ADF810000C20ADF80E0001A9084803
:10135000FFF7AEFE012240F225510548FFF782FE5D
:1013600001210348FFF748FE06B010BD0008014008
:1013700000380140941300080000002034000000F1
:101380006C010008C8130008340000202C0700007E
:101390008801000800A24A040000000000000000CC
:1013A0000102030406070809000000000000000015
:1013B000000000000000010203040102030406070C
:0813C000080902040608000000
:04000005080001CD21
:00000001FF
