:020000040800F2
:100000009007002091010008D1120008390E000865
:10001000CD12000859060008571B00080000000018
:1000200000000000000000000000000001150008B2
:100030001D0D0008000000005913000815160008E7
:10004000AB010008AB010008AB010008AB010008E0
:10005000AB010008AB010008AB010008AB010008D0
:10006000AB010008AB010008AB010008AB010008C0
:10007000AB010008AB010008AB010008AB010008B0
:10008000AB010008AB010008AB010008AB010008A0
:10009000AB010008AB010008AB010008AB01000890
:1000A000AB010008AB010008AB010008AB01000880
:1000B00079160008ED17000819180008AB010008B0
:1000C000AB010008AB010008AB010008AB01000860
:1000D000AB01000835190008AB010008AB010008AE
:1000E000AB010008AB010008AB01000800F002F80A
:1000F00000F03FF80AA090E8000C82448344AAF183
:100100000107DA4501D100F034F8AFF2090EBAE880
:100110000F0013F0010F18BFFB1A43F0010318473B
:10012000E823000008240000103A24BF78C878C1F2
:10013000FAD8520724BF30C830C144BF04680C60ED
:10014000704700000023002400250026103A28BF35
:1001500078C1FBD8520728BF30C148BF0B60704739
:10016000642900F04380002070471FB51FBD10B503
:1001700010BD00F08DF91146FFF7F7FF01F074FD97
:1001800000F0ABF903B4FFF7F2FF03BC01F0ECFCA5
:100190000948804709480047FEE7FEE7FEE7FEE71B
:1001A000FEE7FEE7FEE7FEE7FEE7FEE70448054957
:1001B000054A064B7047000019160008ED000008BC
:1001C0009001002090070020900300209003002061
:1001D000704700000FB4044910B503AA029800F05C
:1001E00025F910BC5DF814FB400000202DE9F0411A
:1001F0000646002410687529314616A510D0AFF3C5
:100200000080002802DA404213A507E031688A071F
:1002100001D512A502E0490704D511A5012401E08A
:10022000AFF3008000210A2206F1240709E0B0FBA9
:10023000F2FCB0FBF2F302FB1C003030785418469D
:10024000491C0028F3D123462A463046BDE8F04138
:1002500000F093B8000000002D0000002B0000000B
:10026000200000002DE9F0474FF0000A89460446BF
:10027000C0F820A02046E1688847002876D02528CD
:1002800006D0D4E901219047206A401C2062F1E7A2
:10029000E168204600258847C4F81CA006460027D0
:1002A000C4F818A02A2E09D0304601F056FC38B305
:1002B00004EB8708303EC8F8186019E059F8041BB1
:1002C000204604EB87029161E1688847012F0646CA
:1002D00018D1E069002820DA25F020051DE0D8F8C3
:1002E000180000EB800006EB40003038C8F818001A
:1002F0002046E1688847064601F02FFC0028EED131
:10030000012F0AD02E2E08D12046E16888477F1C95
:100310000646022F45F02005C4DBA069002803DA59
:10032000404245F00105A061E80701D025F0100525
:10033000B6B1A6F14100192802D8203645F400656F
:100340004A463146204625604D46FFF709FF58B121
:10035000012806D0ED1D25F0070000F1080989E706
:1003600004E005F1040985E730468AE7206ABDE824
:10037000F08770477047704770472DE9F0470D468A
:1003800099469246044600F124080168880604D57F
:10039000E06921F01001216000E00120A84201DDA8
:1003A000471B00E00027A1697A1902EB0900081A2F
:1003B000A0612078C00602D42046AFF3008000265A
:1003C00008E0D4E901211AF806009047206A401C91
:1003D000761C20624E45F4DB2078C0060AD5204604
:1003E000AFF3008006E0D4E9012130209047206A75
:1003F000401C2062381EA7F10107F4DC07E0D4E9B5
:10040000012118F805009047206A401C2062281E30
:10041000A5F10105F3DC2046AFF30080207800064B
:1004200002D50220BDE8F0870120FBE7074B70B53D
:100430000D467B4400F011F80446284600F020F8F1
:1004400010B14FF0FF3070BD204670BD171800008E
:1004500001694A1C02610878704700B58FB0CDE988
:1004600001310021059105497944CDE90310114678
:100470006846FFF7F7FE0FB000BD0000E5FFFFFF85
:10048000007B00F080007047004870472C0100207E
:100490007546FFF7F9FFAE4605006946534620F062
:1004A0000700854618B020B5FFF780FEBDE8204064
:1004B0004FF000064FF000074FF000084FF0000B20
:1004C00021F00701AC46ACE8C009ACE8C009ACE8D3
:1004D000C009ACE8C0098D4670470446AFF3008000
:1004E0002046FFF74FFE21B1826842F00102826090
:1004F00003E0826822F001028260704710B5044672
:100500001248844208D10121401500F053FF002118
:10051000601500F04FFF17E00D48844208D101211B
:10052000001500F047FF0021201500F043FF0BE00D
:100530000848844208D10121C80300F03BFF002194
:100540004FF4004000F036FF10BD000000240140D1
:1005500000280140003C0140014600208A6802F06A
:1005600008020AB1012000E00020704730B50246C1
:100570000020002350680F4C20400D790C6844EA9D
:1005800005242043506090680B4C2040D1E9025470
:100590002C434D7944EA450420439060D06A20F40E
:1005A00070000C7C641EE4B2234340EA0350D06226
:1005B00030BD0000FFFEF0FFFDF7F1FF816841F064
:1005C000080181607047816841F0040181607047D3
:1005D00000B587B001214FF4017000F0DBFE4FF44D
:1005E000004000F0BBFE00208DF8070003208DF8CE
:1005F00006001320ADF804001648FFF77FFF002027
:1006000002908DF80C008DF80D004FF460200490DE
:100610000020059001208DF8180002A90D48FFF771
:10062000A5FF01210B48FFF75EFF0A48FFF7C6FF51
:1006300000BF0848FFF790FF0028FAD10548FFF7F0
:10064000C2FF00BF0348FFF787FF0028FAD107B0B9
:1006500000BD00000024014000BFFEE710B50021EE
:10066000837A012202FA03F13D4A126842F0010244
:100670003B4B1A603A4A1C3212688A43384B1C338F
:100680001A60027BCAB9364A0C3212688A43344B6C
:100690000C331A604288C38842EA0343304A40322E
:1006A000847A42F834300288838842EA03432C4A31
:1006B0004032847A02EBC4025360027B012A19D1D2
:1006C000274A0C3212680A43254B0C331A604288C1
:1006D000038842EA0343224A4032847A42F83430A3
:1006E000C288838842EA03431D4A4032847A02EB7F
:1006F000C4025360C27A3AB9194A121D12688A4379
:10070000174B1B1D1A6006E0154A121D12680A439A
:10071000134B1B1D1A60028932B9114A1432126838
:100720008A430F4B14331A600289012A06D10C4AFE
:10073000143212680A430A4B14331A60427B012AAE
:1007400006D1074A1C3212680A43054B1C331A6053
:10075000034A126822F00102014B1A6010BD00002A
:100760000066004030B5024600200023146824F0E3
:1007700002041460146844F00104146000E05B1C7F
:10078000546804F001041CB94FF6FF74A342F6D17B
:10079000546804F001040CB900206CE08C79012C41
:1007A00004D1146844F08004146003E0146824F059
:1007B00080041460CC79012C04D1146844F0400406
:1007C000146003E0146824F0400414600C7A012CD7
:1007D00004D1146844F02004146003E0146824F089
:1007E000200414604C7A012C04D1146844F01004E5
:1007F000146003E0146824F0100414608C7A012C57
:1008000004D1146844F00804146003E0146824F070
:1008100008041460CC7A012C04D1146844F0040458
:10082000146003E0146824F0040414608C78A407B6
:10083000CD7844EA05640D7944EA05444D7944EAEB
:1008400005540D886D1E2C43D461146824F00104F6
:100850001460002300E05B1C546804F001041CB128
:100860004FF6FF74A342F6D1546804F001040CB1B2
:10087000002000E0012030BD0246002019B9D368F5
:1008800003F0030006E0012903D1136903F003001C
:1008900000E00020704700002DE9F04188B00446D8
:1008A0000D4616461F46DDF838800121042000F071
:1008B00071FD0121480600F05DFD4FF48050ADF858
:1008C0001C0003208DF81E0018208DF81F0007A9BA
:1008D000244800F024FA4FF40060ADF81C004820D2
:1008E0008DF81F0007A91F4800F019FA00208DF8A5
:1008F000160001208DF8170000208DF81800012047
:100900008DF8190000208DF81A008DF81B008DF865
:1009100012808DF813408DF814608DF81550ADF8E5
:10092000107004A91048FFF71DFF00208DF80A0081
:100930008DF80B0001208DF80C000020ADF80000B0
:10094000ADF80200ADF80400ADF80600ADF80800FF
:1009500001208DF80D006846FFF780FE002008B0EA
:10096000BDE8F081000801400064004010B500F5CA
:10097000D87303EB01131B6803F004031372137A9B
:1009800053B900F5D87303EB01131B6840F2FF74F1
:1009900004EA5353136009E000F5D87303EB011325
:1009A0001B686FF0604404EAD303536000F5D8730A
:1009B00003EB01131B6803F00203537200F5D873B5
:1009C00003EB01135B6803F00F03937200F5D87318
:1009D00003EB01135B681B0AD37400F5D87303EBB8
:1009E00001139B68D37200F5D87303EB01139B6866
:1009F0001C0A147300F5D87303EB01139B681C0CDD
:100A0000547300F5D87303EB01139B681B0E9373AB
:100A100000F5D87303EB0113DB68D37300F5D873CB
:100A200003EB0113DB681C0A147400F5D87303EBA5
:100A30000113DB681C0C547400F5D87303EB01132D
:100A4000DB681B0E937421B9C36843F02003C360B5
:100A500003E0036943F02003036110BD0146002059
:100A60000A6822F0010242F002020A604A6802F0BB
:100A70000302022A00D10120704710B5024600206F
:100A8000936803F08063B3F1806F00D110E0936846
:100A900003F00063B3F1006F01D1012008E0936817
:100AA00003F08053B3F1805F01D1022000E0042005
:100AB000042874D002F5C07303EB00131B6803F025
:100AC000010402F5C07303EB00131C600B7A7BB9C1
:100AD0004B7A0C8843EA445302F5C07404EB0014CB
:100AE0002468234302F5C07404EB0014236010E073
:100AF0000B7A4C6843EAC4034C7A234302F5C07472
:100B000004EB00142468234302F5C07404EB0014C2
:100B100023608B7A03F00F038B7202F5C07303EB33
:100B200000135B6823F00F0402F5C07303EB00139E
:100B30005C6002F5C07303EB00135B688C7A23439F
:100B400002F5C07404EB001463608B7B1C064B7BC6
:100B500044EA03440B7B44EA0323CC7A234302F5A3
:100B6000C07404EB0014A3608B7C1C064B7C44EA2D
:100B700003440B7C44EA0323CC7B234302F5C0747B
:100B800004EB0014E36002F5C07303EB00131B6871
:100B900043F0010402F5C07303EB00131C6010BDA9
:100BA00010B50246002321B1012907D002290FD137
:100BB00009E090681D4C00EA04030BE090681C4CAF
:100BC00000EA040306E090681A4C00EA040301E01E
:100BD000002300BF00BF184C181BA34216D007DC2F
:100BE00083B16FF08060184470B1022818D111E011
:100BF000B0F5007F10D0114C204448B1B0F5003F53
:100C00000ED10BE002230DE000230BE0002309E0EE
:100C1000002307E0012305E0012303E0012301E0B5
:100C2000002300BF00BFD8B210BD000003000004C5
:100C30000003000800000310000100080001FFF796
:100C400001464FF6FF7200200B6823F002030B6091
:100C500000E0521E4B6803F00203022B01D1002A70
:100C6000F7D14B6803F00203022B00D0012070473C
:100C700030B585B0054600210B48FFF7FDFD10B9E2
:100C8000002005B030BD6A4600210748FFF76EFE20
:100C9000002404E00DF10B00005D2855641C082CB5
:100CA000F8D39DF80A00ECE700640040F0B585B089
:100CB00007460D4600244FF4147000900020019068
:100CC0008DF808008DF809008DF80A5000BF06E085
:100CD00017F814100DF10B000155601C84B2AC42E2
:100CE000F6DB69460C48FFF7C8FE0646002401E023
:100CF000601C84B231460848FFF752FF18B940F62D
:100D0000FF708442F4DB40F6FF70844202DB012076
:100D100005B0F0BD0020FBE70064004070472DE9FE
:100D2000F041024600250026002000230024002771
:100D300091F803C00CF00F0591F803C00CF0100CF3
:100D4000BCF1000F03D091F802C04CEA050591F800
:100D500000C0BCF1000F31D0146800202BE04FF030
:100D6000010C0CFA00F3B1F800C00CEA03069E4235
:100D700020D183004FF00F0C0CFA03F7BC4305FAA7
:100D800003FC4CEA040491F803C0BCF1280F06D11F
:100D90004FF0010C0CFA00FCC2F814C00AE091F804
:100DA00003C0BCF1480F05D14FF0010C0CFA00FC58
:100DB000C2F810C0401C0828D1D31460B1F800C09C
:100DC000BCF1FF0F34DD546800202EE000F1080C68
:100DD0004FF0010808FA0CF3B1F800C00CEA030662
:100DE0009E4221D183004FF00F0C0CFA03F7BC4355
:100DF00005FA03FC4CEA040491F803C0BCF1280F87
:100E000005D100F1080C08FA0CF8C2F8148091F82A
:100E100003C0BCF1480F07D100F1080C4FF00108E6
:100E200008FA0CF8C2F81080401C0828CED3546091
:100E3000BDE8F0810161704700BFFEE710B50020FA
:100E40000A49086000F046FB00200949C1F8AC01DE
:100E5000022000F0D5FE012004490860022000F0C5
:100E6000CFFE00200249C1F8A80110BDA88121428F
:100E70000080214208B50121082000F08BFA4FF4D0
:100E80004060ADF8000010208DF8030003208DF8BD
:100E9000020069460448FFF742FF4FF440610248F0
:100EA000FFF7C8FF08BD0000000C014010B500208E
:100EB0000A49086000F00EFB01200949C1F8AC01A5
:100EC000022000F09DFE012004490860022000F08D
:100ED00097FE00200249C1F8A80110BDA881214257
:100EE0000080214270B50546002400F0DDFA00269E
:100EF00016E000200F490860022000F081FE01206A
:100F00000D49C1F8A8016006040E0A487C38006843
:100F100008B1601CC4B2012000F072FE701CC6B2A1
:100F2000082EE6DB15B9FFF7C1FF01E0FFF786FFEA
:100F3000204670BDA88121420080214270B5044640
:100F400000F0C8FA00200F490860002517E0E0090A
:100F50000C49091D08606006040E022000F050FED6
:100F600001200949C1F8A801022000F049FE002033
:100F700004490860022000F043FE681CC5B2082D39
:100F8000E5DB70BDA88121420080214210B500F050
:100F9000A1FA0120094908600949C1F8A801042003
:100FA00000F02EFE002005490860042000F028FE15
:100FB00000200349C1F8A80110BD0000AC81214206
:100FC0000080214210B500F085FA00200849086031
:100FD0000849C1F8AC01042000F012FE01200449C8
:100FE00008600449C1F8AC01042000F009FE10BDFE
:100FF000A88121420080214210B5002400F054FA5B
:1010000001200E49086000F0FBFD01200C49C1F8E9
:10101000A80100F0F5FD07E0601CC4B2FA2C03DD66
:10102000FFF7D0FF012010BD044880380068002879
:10103000F2D10249091F086000BFF4E7AC812142E8
:10104000008021422DE9F047022000F095F8824609
:10105000504601F03FF880460022064B01F04EF862
:1010600006460022044B00F0DDFE044600F0A8FE18
:10107000BDE8F0870000F43F00408F402DE9F047C5
:10108000032000F079F88246504601F023F88046AC
:101090000022064B01F032F806460022044B00F015
:1010A000C1FE044600F08CFEBDE8F087000004405D
:1010B00000408F407FB50024FFF7DCFE01210220B5
:1010C00000F058F911E0601CC4B2FF2000F054F8A1
:1010D0000546294623A0FFF77DF8642000F06AFD4D
:1010E0000F2C02DDFF2004B070BDFF2000F044F89B
:1010F00042F260218842E6D144F2FF31002000F044
:101100006FF84FF41E71052000F06AF80020ADF86A
:101110000A00ADF8060040F2CF70ADF8080041F6C5
:101120001F40ADF8040001A9124800F0B1FB0122F4
:101130001146104800F0A2FB1D208DF80000012090
:101140008DF8030000208DF8010002208DF80200C8
:10115000684600F0BFF80121064800F072FB00204D
:10116000C1E70000416464725F44696549443A25FF
:10117000640D0A000004004070B505460024FFF726
:1011800005FF8020FFF7DAFEFFF736FF04460CB1BB
:10119000FF2070BD2846FFF7D1FEFFF72DFF044664
:1011A0000CB1FF20F5E7FFF70DFFFFF7EFFE812001
:1011B000FFF7C4FEFFF720FF04460CB1FF20E8E76D
:1011C0000120FFF78FFE04464FF6FF7000EA04246B
:1011D0000020FFF787FE0443FFF7F4FE2046D8E720
:1011E00070B506460D46FFF7D1FE8020FFF7A6FE3C
:1011F000FFF702FF04460CB1FF2070BD3046FFF739
:101200009DFEFFF7F9FE04460CB1FF20F5E728121A
:10121000FFF794FEFFF7F0FE04460CB1FF20ECE769
:10122000E8B2FFF78BFEFFF7E7FE04460CB1FF20A4
:10123000E3E7FFF7C7FE6620DFE700002DE9F04196
:101240000420FFF799FFC0F30E04204600F042FF90
:1012500005460022034B00F0E5FD074600F0B0FD17
:10126000BDE8F0810088C34030B90021074A116011
:10127000074AC2F8B41107E0012805D10121034A49
:101280001160034AC2F8B41170470000B0812142D6
:101290000080214208B50121082000F07BF81020D1
:1012A0008DF803004FF4E040ADF8000003208DF806
:1012B000020069460348FFF732FD0020024908603A
:1012C00008BD0000000C0140B881214200BFFEE7CC
:1012D0007047000070B5002100230F22C47804B3CA
:1012E000154C246804F4E064C4F5E064210AC1F1FB
:1012F0000403CA40447804FA03F18478144021437B
:1013000009010E4C0678A155047804F01F0501244C
:10131000AC4005786D11AD0005F1E025C5F8004140
:1013200009E0047804F01F050124AC40044D067860
:10133000761145F8264070BD0CED00E000E400E0B9
:1013400080E100E002490143024A11607047000059
:101350000000FA050CED00E0704700000146002097
:10136000034A506820F44040084350607047000032
:101370000010024029B1064AD2690243044BDA61E7
:1013800004E0034AD2698243014BDA6170470000EE
:101390000010024029B1064A92690243044B9A6147
:1013A00004E0034A92698243014B9A61704700004E
:1013B0000010024029B1064AD2680243044BDA60A9
:1013C00004E0034AD2688243014BDA6070470000B0
:1013D0000010024030B500210022002400232D4DD2
:1013E0006D6805F00C0121B1042905D0082923D12D
:1013F00005E0294D056022E0274D05601FE0254DE1
:101400006D6805F47012234D6D6805F48034022573
:1014100005EB92421CB9214D554305600BE01D4D73
:101420006D6805F400351DB11C4D5543056002E0A3
:10143000194D5543056002E0174D056000BF00BF20
:10144000144D6D6805F0F0010909154D6B5C0568D8
:10145000DD4045600F4D6D6805F4E061090A104DEF
:101460006B5C4568DD4085600A4D6D6805F4605130
:10147000C90A0B4D6B5C4568DD40C560054D6D6864
:1014800005F44041890B074D6B5CC568B5FBF3F56E
:10149000056130BD0010024000127A0000093D00D5
:1014A000280000203800002008B501210820FFF79F
:1014B00071FF4FF40060ADF8000004208DF80300C8
:1014C00003208DF8020069460148FFF728FC08BD9B
:1014D000000C014008B501210820FFF75BFF4FF425
:1014E0000060ADF8000010208DF8030003208DF897
:1014F000020069460148FFF712FC08BD000C0140DC
:10150000704710B500F002F810BD00000CB50020C7
:10151000019000903348006840F480303149086001
:1015200000BF3048006800F4003000900198401C73
:101530000190009818B90198B0F5A06FF1D1294831
:10154000006800F4003010B10120009001E000209C
:1015500000900098012843D12348006840F0100013
:10156000214908600846006820F00300086008462A
:10157000006840F0020008601A4840681949486055
:101580000846406848600846406840F4806048600B
:101590000846406820F47C1048600846406840F4E3
:1015A000E81048600846006840F08070086000BF9E
:1015B0000C48006800F000700028F9D00948406825
:1015C00020F00300074948600846406840F00200E8
:1015D000486000BF0348406800F00C000828F9D1BB
:1015E0000CBD00000010024000200240042808D179
:1015F0004FF0E021096941F004014FF0E022116150
:1016000007E04FF0E021096921F004014FF0E022EA
:10161000116170477047000010B51348006840F032
:1016200001001149086008464068104908400E4909
:101630004860084600680E4908400B4908600846A3
:10164000006820F4802008600846406820F4FE000E
:1016500048604FF41F008860FFF753FF4FF00060B1
:101660000449086010BD0000001002400000FFF8AF
:10167000FFFFF6FE08ED00E070B50121880700F0DD
:10168000ECF800286DD00121880700F0D7F8354824
:10169000FFF7D6FA00203449088001204880FFF780
:1016A000CDFD0546314900F063FE044600F040FEE2
:1016B0002D498880FFF7C2FD2D4908602D492C482F
:1016C000006800F055FE2A4908600846006800F0EE
:1016D00013FE642190FBF1F201FB12002249C88045
:1016E000FFF7B0FC044600F023FE1F490881FFF716
:1016F000A9FC1F49086020491D48006800F038FE19
:101700001B4908600846006800F0F6FD642190FB64
:10171000F1F201FB120014494881FFF7AFFC0546C6
:10172000154900F025FE044600F002FE0E498881AE
:10173000FFF7A4FC0E49086010490D48006800F04E
:1017400017FE0B49086008210748FFF7AFFA0C495C
:1017500008700448FFF782F90948017809A0FEF7EC
:1017600039FD70BD006400404800002000002041A9
:101770001000002000007A440000C84200401C46CF
:10178000080000207265733A25640D0A000000000D
:101790007FB505460C4601210846FFF7EBFDADF885
:1017A0000850ADF804400020ADF80A00ADF806007E
:1017B00001A94FF0804000F06BF80122114690071C
:1017C00000F05CF81C208DF8000000208DF801006E
:1017D00002208DF8020001208DF803006846FFF713
:1017E00079FD0121880700F02CF87FBD10B5FFF7C7
:1017F00025FD07490860FFF741FC05494860FFF7F0
:1018000021FC034988600121024800F017F810BD4F
:10181000200100200004004010B50121054800F01F
:101820001CF830B10121034800F008F80248FFF726
:101830001FFA10BD0008004000000020CA430282C9
:10184000704721B1028842F00102028004E0028860
:101850004FF6FE731A400280704730B502460020F2
:1018600000230024158A05EA0103958905EA01048D
:1018700013B10CB1012000E0002030BD1AB1838902
:101880000B43838102E083898B438381704700008F
:10189000002202881D4B98420ED01D4B98420BD05F
:1018A000B0F1804F08D01B4B984205D01A4B98429C
:1018B00002D01A4B984204D14FF68F731A404B88CE
:1018C0001A43174B984207D0164B984204D04FF654
:1018D000FF431A40CB881A4302808B8883850B888C
:1018E00003850A4B98420BD0094B984208D00E4B07
:1018F000984205D00D4B984202D00D4B984201D131
:101900000B7A03860123838270470000002C01407C
:10191000003401400004004000080040000C00407A
:10192000001000400014004000400140004401400D
:101930000048014010B540F225511D4800F04AF81A
:1019400010B31B4800F002F9C4B21A48008800F432
:101950000040C8B91748008800F4804060B10A2CE4
:1019600003D000201349088020E01248008840F48A
:1019700000401049088019E00D2C06D10D48008860
:1019800040F480400B49088010E00A480088C0F30A
:101990000D0009490C5407480088401C054908807F
:1019A00008460088C72801DD0020088010BD00001F
:1019B00000380140440000205800002021B18289F5
:1019C00042F40052828104E082894DF6FF731A408E
:1019D0008281704770B50246002400230025002054
:1019E00040F66A16B14200D100BFC1F3421501F0C2
:1019F0001F03012606FA03F3012D02D19689334015
:101A000006E0022D02D1168A334001E0968A334067
:101A10000C12012606FA04F41688344013B10CB1F6
:101A2000012000E0002070BDF0B503460024002630
:101A30000025002040F66A17B94200D100BF1846C1
:101A4000C1F3421401F01F06012707FA06F5012C25
:101A500001D10C3004E0022C01D1103000E0143030
:101A60001AB107682F43076002E00768AF430760B9
:101A7000F0BD00002DE9F04786B005460E46002473
:101A8000A24600BFA1460027B08900B100BF2F4683
:101A90002C8A4CF6FF700440F08804432C82AC89F9
:101AA0004EF6F3100440B088318908437189084329
:101AB0000443AC81AC8A4FF6FF400440B089044334
:101AC000AC8201A8FFF786FC1F48874202D1DDF8EF
:101AD00010A001E0DDF80CA0A88900F4004040B19E
:101AE0000AEBCA0000EB0A1031684900B0FBF1F8BC
:101AF00007E00AEBCA0000EB0A1031688900B0FB6E
:101B0000F1F86420B8FBF0F004012009642101FB26
:101B10001089A88900F4004040B1322000EBC900D0
:101B2000B0FBF1F000F00700044308E0322000EBC6
:101B300009106421B0FBF1F000F00F0004432C8188
:101B400006B0BDE8F08700000038014001468888F3
:101B5000C0F30800704700BFFEE730380A2801D202
:101B60000120704700207047014600BF7047000009
:101B700010B56FF00400FFF739FD0A4800680A4904
:101B8000B0FBF1F0094908700846007800EB40010D
:101B9000C1EBC0104FF6FF7101EAC0000449088094
:101BA00010BD00001400002000127A003C0000204C
:101BB0003E0000200146114A12884A434FF0E023BC
:101BC0005A6100229A611A46126942F001021A61B2
:101BD00000BF4FF0E022106900F001021AB100F4DA
:101BE0008032002AF5D04FF0E022126922F0010283
:101BF0004FF0E0231A6100229A6170473E000020F6
:101C00000146114A12784A434FF0E0235A610022FC
:101C10009A611A46126942F001021A6100BF4FF040
:101C2000E022106900F001021AB100F48032002AAB
:101C3000F5D04FF0E022126922F001024FF0E023CC
:101C40001A6100229A6170473C00002000BF054ADB
:101C5000128802F04002002AF9D0C2B2014B1B1DCB
:101C60001A8070470038014008B5FFF7D5FCFFF730
:101C70007FFF4FF4A060FFF765FB4FF4E13000F009
:101C80004FF8FFF707FB0020FFF7EEFAFEF7A0FC86
:101C9000FFF710FA00200323022207210090FEF72D
:101CA000FBFD41F61F410920FFF772FD34E01B48A0
:101CB000FEF7DEFF00282FD000201849087098B1E9
:101CC0000220487080B10020887068B1C87058B197
:101CD000087148B1487138B1887128B10120C871C4
:101CE00010B10020FFF7C0FA00200C49087098B12D
:101CF0000220487080B10020887068B1C87058B167
:101D0000087148B1487138B1887128B10220C87192
:101D100010B10120FFF7A8FAC9E700000000002079
:101D200010B586B00446012144F20400FFF732FBEF
:101D30004FF40070ADF8140003208DF81600182041
:101D40008DF8170005A91C48FEF7E9FF4FF48060E5
:101D5000ADF8140004208DF8170005A91648FEF709
:101D6000DEFF25208DF8000003208DF801008DF89E
:101D7000020001208DF803006846FFF7ABFA0194DA
:101D80000020ADF80800ADF80A00ADF80C00ADF881
:101D900010000C20ADF80E0001A90848FFF76AFEFC
:101DA000012240F225510548FFF73EFE012103487C
:101DB000FFF704FE06B010BD0008014000380140E6
:101DC00021F00042A2F16052B2F5801F01F0004301
:101DD00028BFD2F17F6C0BD95FEA001C43EAC20234
:101DE00042EB507018BF704728BF20F001007047C9
:101DF000B2F5801FBCBF184670474FEA410C1CF576
:101E0000001F02D2084600F07ABB70B500F020FA3D
:101E100000000089FFF7F6BF4FF00040A0F58000FA
:101E2000704700002DE9C04130B4DFF8A0C23CEAA1
:101E3000111418BF3CEA131400F0EC8081EA03058A
:101E40001CEA111444EAD57418BF1CEA131500F0FB
:101E5000C780A4EB05044FF0004545EAC12145EADF
:101E6000C32341EA505143EA525304F17F7499422B
:101E700004F500344FEAC0204FEAC22208BF904266
:101E800000F09C804FEA13650FF24016765D4FEA32
:101E9000134506FB05F7C7F1807706FB07F74FEA06
:101EA000D737A7FB03687642C8F58038A7FB06CE74
:101EB00038BFA8F1010807FB08E64FF0000EA6FBAB
:101EC000028CE6FB03CEDCF1000CCEF1004E38BFF5
:101ED000AEF1010EA6FB0C584FF000074FF00005C5
:101EE000E6FB0E87A1FB08C6A0FB07CE16EB0E068D
:101EF00045F10005E1FB076515F1E04E7EBFA4F555
:101F000080345FEA46066D4116F1800745F1000511
:101F10004FEA17274FEA066647EA0567A6F1DE464D
:101F2000B6F1805F4FEA15251FD9384624F0010C21
:101F300005EBC471BCF1FE6F01EB0C1102D8F0BCD3
:101F4000BDE8008124425CBF01F5801E9EEAC47F8B
:101F500002D4F0BCBDE80081244238D4F0BCA1F129
:101F6000C041BDE8004100F0C1B94FEAD22242EAC7
:101F700043524FEAD323A7FB02864FEAD02040EA20
:101F8000415007FB03661EEA0E0F4FEAD12105FB05
:101F9000026658BFA6EB0056B6EB00564FEA520E4B
:101FA0004EEAC37E18EB0E0E56EB530EBDD518EB62
:101FB00002085E417F1C55F10005B6E74FF480151D
:101FC0004FF000074FF000064FF00008ADE7F0BCFF
:101FD0004FF0000001F1C04101F00041BDE8008177
:101FE00011EA0C1F0CEA131500D00CE013EA0C1FC9
:101FF00000F025804FF00000F0BC81EA030101F001
:102000000041BDE80081F0BCBDE8004181EA030168
:1020100000F06CB9F0BCBDE8004170B500F018F9F3
:10202000097EFC3E00F007B881EA03014FF0000092
:1020300001F00041704781EA030100F057B9F0BC9C
:10204000BDE800414FF0000021497047FFFDFBF95A
:10205000F7F5F4F2F0EEEDEBE9E8E6E4E3E1E0DEDB
:10206000DDDBDAD8D7D5D4D3D1D0CFCDCCCBCAC84D
:10207000C7C6C5C4C2C1C0BFBEBDBCBBBAB9B8B774
:10208000B6B5B4B3B2B1B0AFAEADACABAAA9A8A867
:10209000A7A6A5A4A3A3A2A1A09F9F9E9D9C9C9B35
:1020A0009A999998979796959594939392919190E0
:1020B0008F8F8E8E8D8C8C8B8B8A89898888878771
:1020C0008685858484838382828181800000FF07E6
:1020D0000000F87FB0FA80F310FA03F10AD0C3F1E0
:1020E0001D0303F580634FEA41504FEA035202EBB0
:1020F000D12170474FF0000070470000DFF848C161
:1021000070B51CEA111E1EBF1CEA13159EEA0C0FC7
:1021100095EA0C0F00F06F8081EA030423EA4C1368
:102120004EEAD47E21EA4C1141F4801143F480132D
:10213000AE44A1FB024CA0FB0365AEF17F7E3619D5
:1021400055EB0C05A1FB034C4CF10003A0FB021C5A
:1021500016EB0C06654153F10003094218BF46F027
:10216000010613F4007F0BD14FEA03314FEA05302B
:10217000340341EA155140EA16506FF003020AE0B9
:102180004FEAC3214FEAC520F40241EA555140EA23
:1021900056506FF0020202EB2E4201EB025585EA27
:1021A000CE710AD05FEA440C18BF24F0004450F10D
:1021B000000041F1000120EAD47040F2FE7C62454B
:1021C00000D270BDA84214BF4FF080444FF040448D
:1021D000002E08BF0024BEF1806FA8BFA1F1C0414E
:1021E000BDE8704080F282804FF0000001F1C041F4
:1021F00001F0004170479EEA0C0F0CEA131518BF5E
:1022000095EA0C0F06D04FF0000081EA030E0EF0A5
:10221000004170BD00F01CF88900013E00F007B8D5
:1022200000F009B84FEA430C5FEA5C5C08D081EA31
:10223000030100F05BB84FEA410C5FEA5C5CF6D149
:102240004FF00000014970470000FF070000F87FD1
:102250000EF1020E2EF0030E5EF8046B364205D42A
:10226000012A43EB030515F5001F12D8012841EBA5
:10227000010C1CF5001F0CD80ED14FEAD17C15F5CE
:10228000001F0CEB4C0C0CF1020C08BF4CEBD37C88
:1022900004E04FF0080C01E04FEAD37C0CEB4C0556
:1022A00026FA05F606F00706B6F1040C06D20EEB88
:1022B000860CBDE870404CF0010C6047DFE80CF084
:1022C000090B02024FF000414FF00000A1F5002180
:1022D00070BD19461046012851EB010418BFD4F512
:1022E000001484BF002001F0004170BD0808A0F573
:1022F00000114FEA3101704741000B0ED3F19E02ED
:1023000008D950F400034FEA032323FA02F048BF30
:102310004042704710B500F0ACF800BF49922480ED
:10232000002070476FF0004282EA200070470000F2
:10233000C10DD1F19E0206DB4FEA002343F00043BA
:1023400023FA02F07047004207D54FEA4001B1F18D
:10235000FE4F02D24FF00000704710B500F089F830
:1023600049922480002070476FEA200070470000E7
:102370004FF47F0C1CEAD0121EBF1CEAD11392EA64
:102380000C0F93EA0C0F00F0478090EA010F48BF52
:1023900042F480724FF0004C4CEA00204CEA0121DC
:1023A00002EB0302A0FB0113A2F50002002918BFF3
:1023B00043F001035B0028BF4FEA330342EB2242A4
:1023C0005FEA132C4CEBC2502EBFBCEB436FB2F54F
:1023D0007C0F70474FEA036CBCF1004F08BF20F040
:1023E0000100B2F57C0F38BF70470BD582F0FF02B9
:1023F00012F5803FC8BF704700F1C040D8BF00F061
:102400000040704700F5000C5FEA4C0C48BF704775
:10241000B0F1C04000F073B890EA010F0CEAD1139C
:1024200048BF42F48072624538BF634504D280EAF7
:10243000010000F00040704710B500F01AF800BF2E
:102440008900013E00F007B800F009B85FEA410CCE
:102450005FEA1C6C08D080EA010000F050B85FEA27
:10246000400C5FEA1C6CF6D14FF00040A0F58000F4
:1024700070470EF1020E2EF0030E5EF8044B24425C
:1024800004D44FEA4102B2F17F4F11D84FEA400322
:10249000B3F17F4F0CD80ED14FEAD07CB2F17F4F11
:1024A0000CEB4C0C0CF1020C08BF4CEBD17C04E0A3
:1024B0004FF0080C01E04FEAD17C0CEB4C0324FAFE
:1024C00003F404F00704B4F1040C06D20EEB840C00
:1024D000BDE810404CF0010C6047DFE80CF0070845
:1024E00002024FF00040A0F5800010BD08464200F7
:1024F00018BFD2F1807288BF00F0004010BDFF21EC
:1025000041EAD050C005704728250008000000208F
:10251000480000002801000870250008480000203D
:10252000480700004401000800000000000000000F
:1025300000000000000000000000000000A24A04AB
:102540000000000000000000010203040607080963
:102550000000000001020304010203040607080949
:102560000204060800000000000000000000000057
:04000005080000ED02
:00000001FF
